:020000040800F2
:10000000900400207D030008B1350008AD350008DC
:10001000AF3500087D0A00086D3D000800000000B3
:10002000000000000000000000000000B5350008DE
:100030007F0A000800000000B3350008B73500084B
:100040009703000897030008970300089703000828
:100050009703000897030008970300089703000818
:100060009703000897030008970300089703000808
:1000700097030008970300089703000897030008F8
:10008000970300089703000897030008850A0008F3
:100090009D0A0008910A0008A90A000897030008B1
:1000A00097030008970300089703000897030008C8
:1000B0007D3600088936000897030008970300087A
:1000C00097030008970300089703000897030008A8
:1000D0009703000897030008970300089703000898
:1000E000970300089703000800000000970300082A
:1000F0009703000897030008970300089703000878
:100100009703000897030008970300089703000867
:100110009703000897030008970300089703000857
:100120009703000897030008970300089703000847
:100130009703000897030008970300089703000837
:1001400000000000000000000000000000000000AF
:100150009703000897030008970300089703000817
:100160009703000897030008970300089703000807
:100170009703000897030008970300080000000099
:1001800097030008970300089703000897030008E7
:1001900097030008970300089703000897030008D7
:1001A0009703000897030008970300080000000069
:1001B00097030008970300089703000897030008B7
:1001C00097030008970300080000000000000000EB
:1001D000000000000000000097030008000000007D
:1001E000000000000000000000000000000000000F
:1001F00000000000000000009703000897030008BB
:100200009703000897030008000000009703000808
:100210009703000897030008970300089703000856
:10022000970300080000000097030008000000008A
:1002300097030008970300080000000097030008D8
:100240009703000897030008970300089703000826
:100250009703000897030008970300089703000816
:100260009703000897030008970300089703000806
:100270009703000897030008970300080000000098
:1002800097030008970300089703000897030008E6
:10029000000000009703000897030008000000001A
:1002A0000000000097030008970300089703000868
:1002B00097030008970300089703000897030008B6
:1002C00097030008970300089703000800F002F85E
:1002D00000F045F80AA090E8000C82448344AAF19B
:1002E0000107DA4501D100F03AF8AFF2090EBAE899
:1002F0000F0013F0010F18BFFB1A43F0010318475A
:10030000B0480000F0480000103A24BF78C878C117
:10031000FAD8520724BF30C830C144BF04680C600B
:10032000704700000023002400250026103A28BF53
:1003300078C1FBD8520728BF30C148BF0B60704757
:100340001FB504F0CEFB9DE8030000F0B9F900F002
:1003500083FB1FBD10B5002000F0F8FA10BD00F0BF
:1003600059FA1146FFF7ECFF04F0C8FA00F09DFAC5
:1003700003B4FFF7EFFF03BC00F042FA09488047DF
:1003800009480047FEE7FEE7FEE7FEE7FEE7FEE777
:10039000FEE7FEE7FEE7FEE704480549054A064B8F
:1003A00070470000BD350008CD020008900200240F
:1003B00090040020900400249000002053EA020CD6
:1003C00000F069802DE9F04B4FF00006002B1FBFB5
:1003D000B3FA83F503FA05F424FA05F65E4012BF7A
:1003E0001643B2FA82F502FA05F4C5F120051EBFE4
:1003F00022FA05FC44EA0C04203556EA044C4FEA84
:10040000144418BF641C4FF000084FF000099042DC
:1004100071EB030C39D3002919BFB1FA81F701FA46
:1004200007F6B0FA80F700FA07F6C7F120071EBFFB
:1004300020FA07FC46EA0C062037B6FBF4FCA7EBD3
:100440000507103F07F01F0BCBF120060CFA0BFB42
:100450002CFA06F644BFB3460026202FA4BF5E4602
:100460004FF0000B5BEA060C08BF4FF0010B19EBD5
:100470000B09ABFB027C48EB0608C01B06FB02CC59
:100480000BFB03CC71EB0C01C1E70B460246414666
:100490004846BDE8F08B13B54FF000004FF0000167
:1004A000AFF30080BDE81C407047032A40F2308063
:1004B00010F0030C00F0158011F8013BBCF1020FA5
:1004C000624498BF11F801CB00F8013B38BF11F826
:1004D000013BA2F1040298BF00F801CB38BF00F83D
:1004E000013B11F0030300F02580083AC0F00880BA
:1004F00051F8043B083A51F804CBA0E80810F5E79E
:10050000121D5CBF51F8043B40F8043BAFF3008080
:10051000D20724BF11F8013B11F801CB48BF11F8F5
:10052000012B24BF00F8013B00F801CB48BF00F8C5
:10053000012B704710B5203AC0F00B80B1E818507D
:10054000203AA0E81850B1E81850A0E81850BFF4BD
:10055000F5AF5FEA027C24BFB1E81850A0E818505C
:1005600044BF18C918C0BDE810405FEA827C24BFB0
:1005700051F8043B40F8043B08BF7047D20728BF3E
:1005800031F8023B48BF11F8012B28BF20F8023B8D
:1005900048BF00F8012B70474FF000020429C0F05B
:1005A000128010F0030C00F01B80CCF1040CBCF1A5
:1005B000020F18BF00F8012BA8BF20F8022BA1EBF7
:1005C0000C0100F00DB85FEAC17C24BF00F8012BDC
:1005D00000F8012B48BF00F8012B70474FF00002D4
:1005E00000B5134694469646203922BFA0E80C5029
:1005F000A0E80C50B1F12001BFF4F7AF090728BF04
:10060000A0E80C5048BF0CC05DF804EB890028BF7F
:1006100040F8042B08BF704748BF20F8022B11F0A8
:10062000804F18BF00F8012B704770477047704724
:1006300070B50446051F00F023F80068002C14BFB5
:10064000446870BD002C18BFAC423CBF20466468B3
:10065000F8D301680A18AA4218BF456003D12A6876
:1006600005461144016028684119A1421CBF6C6015
:1006700070BD6168696021680844286070BD000031
:100680000048704738000020004870476400002090
:10069000704770477047704738B504460A460020D7
:1006A0006946AFF30080002808BF38BD02460099B4
:1006B000204600F0E0F8012038BD012000F01CB910
:1006C000F8B5AFF30080054600200C46102000BFAF
:1006D0000646A819A0420DD9324669460020AFF35C
:1006E0000080070008BF00F007F90098A04218BF7B
:1006F0000546C419FFF7C4FF05600746F01D20F04A
:1007000007004619284600F0AFF8B44208BFF8BD0C
:10071000A21B31463868BDE8F84000F0ACB870B5AF
:100720000646FFF7ADFF056806F10B0020F0070451
:10073000B4429CBF002070BD2B466A68BAB11068F5
:10074000A04210D304F1080188423CBF50685860B1
:1007500007D35168101941601168091B0160586086
:100760001460101D70BD13465268002AE7D121465F
:100770002846FFF791FF0028DED170BD10B500209C
:1007800000F0B3F8FFF7E6FDBDE81040012000F0EF
:1007900037B8AFF3008010B500F00DF8016919B15A
:1007A00000220261884701E080688047FFF7E6FF8A
:1007B00010B5FFF7E3FF70B500F052F80468054686
:1007C000A4B92020FFF7ABFF040011D00949002095
:1007D0002C60C4E900010849A160207320616061B8
:1007E0000649A06109B100F08EF8E061204670BDB5
:1007F000FFF7C4FF00000000B10700080000000080
:1008000001491820ABBEFEE72600020000487047F1
:10081000300000207546FFF7F9FFAE460500694637
:10082000534620F00700854618B020B5FFF7B4FD09
:10083000BDE820404FF000064FF000074FF00008E1
:100840004FF0000B21F00701AC46ACE8C009ACE862
:10085000C009ACE8C009ACE8C0098D46704700008B
:10086000004870476C00002000210160C0E90110C1
:10087000704710207047034640688C46002818BF18
:1008800088423CBF03464068F8D318681844884241
:1008900007D00CF1030020F00700001D411A521A86
:1008A0000146081D0A60FFF7C3BE10B50446AFF34A
:1008B00000802046BDE81040FFF75ABD2DE9F04109
:1008C000074615460E461020FFF729FF04000AD000
:1008D0006760C4E9026500F035F8016821600460D2
:1008E0000020BDE8F0810120FBE710B500F054F8CE
:1008F000BDE8104000F04BB810B500F065F8BDE859
:10090000104000F044B810B58820FFF708FF002819
:1009100001D00021017010BD802902D808B10178F2
:1009200009B100207047012100F8081B704718B179
:1009300000F10802914201D00020704700210170AF
:100940007047704700487047680000202DE9F0416B
:100950000646FFF7F7FF8046454613E016B1E0680C
:10096000B0420ED120682860D4E90101D8F80070A7
:1009700088472046FFF75CFED8F80000B842EBD16C
:1009800000E025462C68002CE8D1BDE8F081002865
:1009900001D0FFF735BF704710B5002102A000F06D
:1009A0003BF8012010BD0000534947414252543AE0
:1009B0002041626E6F726D616C207465726D696E3C
:1009C0006174696F6E00000010B5012805D0002128
:1009D00003A000F021F8012010BD09A1F8E70000F4
:1009E00053494752544D454D3A204F7574206F6618
:1009F0002068656170206D656D6F72790000000080
:100A00003A2048656170206D656D6F727920636F63
:100A1000727275707465640070B505460C460A20E4
:100A200000E06D1C00F011F835B128780028F8D1ED
:100A300002E0641C00F009F814B120780028F8D115
:100A4000BDE870400A20AFF3008008B569468DF814
:100A500000000320ABBE08BD70B5064C7C44064DBB
:100A60007D4403E0206820448047241DAC42F9D136
:100A700070BD00009041000098410000FEE7704703
:100A800072B6FEE7014800F0EFB900002400002430
:100A9000014800F0E9B9000024000024014800F0FA
:100AA000E3B90000C4000024014800F0DDB90000F3
:100AB000C400002470B5044600F07CFE0546601CAE
:100AC00002D004480078044400F074FE401BA042A9
:100AD000FAD370BD0000002010B590F89830012BBB
:100AE00009D0022B07D0D0F89C1041F00201C0F8C9
:100AF0009C10012010BD03689C6D0C4203D1DC6D7D
:100B000044F0010404E09C6D31EA04041FD0032486
:100B1000DC658B0505D50368D3F8E0401443C3F8C2
:100B2000E0404B0505D50368D3F8E4401443C3F80F
:100B3000E4400068084A01EA0203446D074A1C4386
:100B40004465106840EA91701060002010BDDC6DB3
:100B500044F00204DCE70000FFFFCF3F14A8004090
:100B600070B5044690F89800022804D0D4F89C0090
:100B700040F008000DE02068D0F8C03013F07C5F32
:100B80000BD0D0F8C4309B020CD5D4F89C0040F4B4
:100B90000070C4F89C00012070BDD4F89C0040F0A7
:100BA0002000F6E7D0F8C400C0F3044520462B46E9
:100BB00003F0EAFB21680120A840C1F8D000C4F886
:100BC0009400002070BD704790F89830012B07D03A
:100BD000D0F89C1041F00401C0F89C10012070472F
:100BE00061B10068012913D0D0F8B01021F0FE41A6
:100BF00041EA0261C0F8B010002070470068D0F8E8
:100C0000F01021F07C5141EA0261C0F8F010F3E7E6
:100C1000D0F8A01021F0FE4141EA0261C0F8A01016
:100C2000EAE770B590F89820012A09D0022A07D087
:100C3000D0F89C1041F00201C0F89C10012070BD5A
:100C40000B68CA6883B10B69072A43EA427325D04F
:100C50000C7A4A6942EA84724968006F00EBC1006D
:100C6000C0E90032002070BD072A0DD00C7AD606EC
:100C70000D8A4B6943EA847246EA0543C06E4968AF
:100C80001A4340F82120EDE70B8A4FF06055D1E977
:100C9000062442EA034245EA0423EFE78A69DBE7D8
:100CA00030B590F89850039C012D07D0D0F89C10D7
:100CB00041F00401C0F89C10012030BD0D01016815
:100CC00045EA820040EA43002043C1F8800000204A
:100CD00030BD704770470000F0B590F89850002480
:100CE000022D04D0D0F89C1041F0080129E04029E1
:100CF00005D0412929D0056D8D4219D942E00568FA
:100D0000D5F8A06016F4FE0F12D0D5F8A4607606D0
:100D100013D0D5F8A460F60105D5D5F8A06016F07B
:100D2000004F00D50124D5F8A470466F456C24E02F
:100D3000D0F89C1041F0200103E0D0F89C1041F461
:100D40008071C0F89C100120F0BD0568D5F8B06036
:100D500016F4FE0FECD0D5F8B4607606EDD0D5F8D9
:100D6000B460F60105D5D5F8B06016F0004F00D597
:100D70000124D5F8B470866FC56CC7F305273C44D1
:100D8000654302E0456DC66F4D4306EB85052E6851
:100D900016F0804656602E6836D026F06046166003
:100DA000D5F800C000262E4F0CF0005CC2F808C039
:100DB000D5F800C00CF0004CC2F810C0B5F804C063
:100DC0001FFA8CFCC2F81CC0D5F804C0CCF3034C4D
:100DD000C2F80CC0D5F804C00CF4801CC2F814C0D2
:100DE000D5F804C00CF4001CC2F818C0D5F804C033
:100DF000CCF3066CC2F820C0D5F804C008354FEA21
:100E0000DC7CC2F824C008E0C6F38A46C7E700BF0E
:100E100015F806C003F806C0761CD2F80CC017F807
:100E20000CC0B445F4D840290AD041290CD020295F
:100E30004FF001020CD200688A40C0F898200DE003
:100E40000068C0F8A84009E00068C0F8B84005E0B4
:100E5000006801F01F018A40C0F89C200020F0BD0E
:100E6000EC4A0008704700002DE9FF5FDFF80CB383
:100E700004460BF10401DBF8000025680F68AA4660
:100E80008007D5F85090696DD5F850806E6D2A6D49
:100E9000D5F854C02B6D00EA8770009009F47049B2
:100EA0006F6D286D01EA09010191DAF85410DAF842
:100EB0005490DAF8505008F00F0806EA0806029637
:100EC00002F0F00203F071536FEA09061F4000F0D0
:100ED00060700CEA020CCDF80CC0F20501EA0009C2
:100EE0000CD4E843C00509D400214FF48073CAF83C
:100EF0005030CBF800102046FFF7B4FF700512D435
:100F0000E84340050FD4206800234FF48068D0F8F0
:100F1000DC20D0F8E410C0F85080CBF8003011404D
:100F2000204600F027FBDFF858A2009850B1226855
:100F3000830F00EA0A001065CBF8003020460099C4
:100F4000FFF741FE019850B12268830F00EA0A00C2
:100F50001065CBF800302046019900F00DFB029897
:100F600050B12268830F00EA0A001065CBF8003008
:100F70002046029900F0CEFA039850B12268830F00
:100F800000EA0A001065CBF800302046039900F013
:100F9000D1FA30050CD4E843000509D423680020B9
:100FA0004FF400621A65CBF80000204600F0E5FA25
:100FB000B00512D4E84380050FD4206800234FF415
:100FC0000078D0F8D820D0F8E010C0F85080CBF8E6
:100FD00000301140204600F0CEFA30030CD4E84334
:100FE000000309D4236800204FF400221A65CBF8CF
:100FF0000000204600F08CFAF0030CD4E843C00354
:1010000009D4236800204FF480321A65CBF8000021
:10101000204600F0AEFA70030CD4E843400309D434
:10102000226800204FF480231365CBF8000020468F
:1010300000F09EFAB0030FD4E84380030CD4236879
:1010400000204FF400321A65CBF80000D4F89C0061
:1010500040F08000C4F89C00B9F1000F0BD022686A
:101060004FEA997309EA0A001065CBF80030494647
:101070002046FFF72FFE5FB12268BB0F07EA0A0088
:101080001065CBF80030D4F89C003843C4F89C00BD
:101090003C492068884268D1606881468068800742
:1010A00063D0D9F82060D9F82410D9F82080D9F875
:1010B0002400D9F820C0D9F82470D9F82030D9F804
:1010C0002450D9F8202003F4FC4306F00F0AD9F885
:1010D00024601D40D9F824B008F030080CF4C07C1E
:1010E00002F4F02211EA0A0100EA080807EA0C07F4
:1010F00006EA0206D9F820A004D0C9F8201020463C
:1011000000F033FAB8F1000005D06168086241468A
:10111000204600F02CFA6FEA0B0040060ED46FEA6E
:101120000A0040060AD460684021C36BC26B0162AA
:101130002046190C02F03F0200F018FA2FB1606847
:1011400007623946204600F00FFA35B16068056243
:10115000D4F89C002843C4F89C0036B1606806624D
:10116000D4F89C003043C4F89C00D4F89C000028BC
:1011700002D02046FFF7ADFDBDE8FF9F10A800405C
:10118000FFFFCF3F00A000402DE9F04194B08D4912
:101190004C2204466846FFF7CDF964B18A4D2068B9
:1011A000A84202D100F58070606094F898004FF07A
:1011B000000820B108E0012014B0BDE8F08120460D
:1011C00084F8998000F002F92068816921F010010B
:1011D000816100F0EFFA0327064604E000F0EAFA26
:1011E000801B0A2811D8206880690007F6D420687F
:1011F000816941F00101816100F0DCFA06460DE0F1
:1012000000F0D8FA801B0A2808D9D4F89C0040F0D6
:101210000100C4F89C0084F89870CCE720688069CD
:10122000C007EDD02068816941F002018161207C16
:1012300001282068816937D041F040018161607CDC
:1012400001282068816932D021F480418161A07C2D
:101250000128206881692DD041F480518161206886
:10126000A268816921F4407111438161206881691C
:1012700021F0A40181612068016921F01001016160
:10128000E068012819D010B302281BD020688169BA
:1012900041F0800181612068016941F01001016124
:1012A000E06803280ED012E021F04001C6E741F4C7
:1012B0008041CBE721F48051D0E72068816941F07B
:1012C000040103E02068816941F020018161207EF2
:1012D0006FF0FF02D4E90773A68A1102400602EB01
:1012E0000727A0F10070384327685B1E184301EB05
:1012F00006463043F861A068B0F5407F11D104F193
:101300002800A68C6FF00F0C89C801EB0641401E27
:1013100002EB0322104322680CEB07131843084327
:10132000D060206E30B12068626ED0F8C0101143DA
:10133000C0F8C010D4E917126846D14209D021681C
:10134000A36E51F8C82F50F8233022F007021A4339
:101350000A60216C49B12168626C51F8BC3F50F8B9
:10136000226023F0070232430A60A16C51B1216868
:10137000E36C51F8BC2F50F8233022F0700242EA9F
:1013800003120A60216D51B12168626D51F8BC3FB2
:1013900050F8220023F4E06242EA0020086020684E
:1013A000A84204D16068816821F003018160C4F81B
:1013B00094800121C4F89C8084F89810204603F0A2
:1013C00019F8F9E6FC4A000800A000402DE9F043B6
:1013D000B5B0804614212EA8FFF700F9B821684661
:1013E000FFF7FCF8454D0026D8F800004FF080517B
:1013F000434A0C3D404F4FF00208404C90424FF0A2
:10140000090938D100201B914A13CDE90020684614
:1014100000F048FC08B1FFF733FB3868401C386027
:10142000012807D1206840F480702060206800F413
:1014300080703390286840F00800286028680322F4
:101440002E922EA900F00800CDE92F863196CDE925
:1014500032902C4800F092F800221320114600F040
:101460006FFA132000F05EFA00221520114600F0FA
:1014700067FA15203BE0244A90423AD100201B91A4
:101480004FF40042CDE90020684600F00BFC08B1A3
:10149000FFF7F6FA3868401C3860012807D1206849
:1014A00040F480702060206800F4807033902868D9
:1014B00040F002002860286860222E922EA900F0D9
:1014C0000200CDE92F863196CDE932900F4800F029
:1014D00055F800221420114600F032FA142000F0D2
:1014E00021FA00221620114600F02AFA162000F0F8
:1014F00019FA35B0BDE8F08310000024EC4402581E
:1015000000A00040000C025800A400400004025853
:101510007047000000B58BB0044B40216A46FFF7CE
:10152000DBFB0349012008700BB000BD080000245C
:1015300002000024704790F89810012907D0D0F8D5
:101540009C1041F00401C0F89C100120704702215A
:1015500080F89810002201688B6923F001038B61E9
:10156000C0F89C201046704770477047704770471E
:101570007047704770477047704770472DE9F84FC4
:1015800003247A4D00234FF001094FF0B04B4FF088
:101590000F0AE4E009FA03F6324078D00F7907F039
:1015A0000307012F01D0022F1AD187684FEA430E9B
:1015B000D1F80CC004FA0EF827EA08070CFA0EFC62
:1015C0004CEA070CC0F808C0476891F804C0B7435C
:1015D000CCF3001C0CFA03FC4CEA070CC0F804C066
:1015E0000E79F643B6070BD0C6684FEA43088F68FA
:1015F00004FA08FC26EA0C0607FA08F73743C76026
:101600000E7906F00306022E12D1DE080F694FEAAA
:10161000437C00EB8606B646366A4FEADC6C0AFA73
:101620000CF807FA0CF726EA08063743CEF82070C4
:101630000F7906684FEA430807F0030704FA08FC2D
:1016400007FA08F726EA0C06374307604E6816F4D7
:10165000403F1CD0464E376847F002073760366877
:101660009F0706F00206009623F0030606F1B04637
:10167000B6463F0FD6F80864DFF8F8800AFA07FC90
:10168000404526EA0C0603D14FF0000C3AE065E035
:10169000DFF8E4C0604502D14FF0010C32E0DFF822
:1016A000DCC0604502D14FF0020C2BE0DFF8D0C067
:1016B000604502D14FF0030C24E0DFF8C8C060455C
:1016C00002D14FF0040C1DE0DFF8BCC0604502D130
:1016D0004FF0050C16E0DFF8B4C0604502D14FF0C2
:1016E000060C0FE0DFF8A8C0604502D14FF0070CF0
:1016F00008E0DFF8A0C0604502D14FF0090C01E01E
:101700004FF00A0C0CFA07FC4CEA060CCEF808C4A1
:101710004F68DBF80060FF0226EA020600D5164398
:101720005F46CBF80060D1F804C0DBF804605FEAE4
:101730008C2C26EA020600D516437E606E684F6840
:1017400026EA0206BF0300D516436E602E684F6876
:1017500026EA0206FF0300D516432E605B1C0A68CA
:1017600032FA03F67FF416AFBDE8F88F8000005818
:10177000F4440258000002580004025800080258BD
:10178000000C0258001002580014025800180258A9
:10179000001C0258002402580069084000D00120B3
:1017A0007047426921EA02030A4043EA024181612B
:1017B000704700000148806870470000000000206A
:1017C000024881680278114481607047000000205F
:1017D000032010B500F0D4F801F076F80F4A104954
:1017E00014681368C4F3032203F00F038A5CC95C16
:1017F00002F01F0201F01F01D0400A4A20FA01F155
:101800001160094908600F2000F010F808B10120AC
:1018100010BD00F079F8002010BD000018440258F7
:10182000704B0008180000241400002470B50D4D02
:1018300004462878A0B14FF47A71B1FBF0F00A4960
:101840000968B1FBF0F001F06EFB48B9102C07D22B
:1018500000222146501E00F073F800206C6070BD1D
:10186000012070BD0000002014000024154BF0B5CD
:10187000083B427813491A600B680A1F23F00103E2
:101880000B6043681360057BC67A827A437B2D0721
:10189000847B45EA0665C77B90F809C0067A90F814
:1018A00000E045EAC24040EA834040EA444040EA62
:1018B000074040EA0C2040EA460040EA0E0008607B
:1018C000F0BD0000A0ED00E0BFF35F8F04480021F1
:1018D0000368034A23F48033036070321160704759
:1018E00024ED00E0074A40F0010006497032106024
:1018F000086840F480300860BFF34F8FBFF36F8FEC
:101900007047000024ED00E0054808B5016841F08B
:1019100002010160006800F00200009008BD0000B4
:10192000F4440258002809DB410900F01F02890035
:10193000012001F1E0219040C1F800017047000052
:101940000E4BF0B41B680D46C3F30223C3F1070628
:10195000042E00D90426191D072901D2002300E016
:10196000DB1E012404FA06F19C40491E2940641E36
:10197000994014402143F0BC02F020BE0CED00E081
:10198000064900F0070210B54FF6FF040868044B43
:10199000204040EA02201843086010BD0CED00E032
:1019A0000000FA05134970B50A68D243520705D5FD
:1019B000096801F00701814213D118E00A6822F09A
:1019C000070202430A60FFF7F5FE0A4D4FF47A76EC
:1019D0000446083D07E000BFFFF7ECFE001BB042E5
:1019E00001D9012070BD2868C0438004F4D40020D0
:1019F00070BD00000C48025810B500F01FFF0549EB
:101A00000968054AC1F30211515C01F01F01C84089
:101A100010BD000020440258704B0008494930B501
:101A2000484C0B1D0A68143409681D68246802F0CC
:101A30000303C5F30012C1F30531C4F3CC0400293C
:101A400014FB02F200EE102AF8EE400A75D03F4A6D
:101A50009FED3D1AB7EE000A6BB1DFED3D1A012B89
:101A600001D0022B64D002EE101A1168F8EE422A5F
:101A700081EEA22A21E0334C283C23689B0612D534
:101A8000344B246801EE901A1168C4F3C104F8EED7
:101A9000612AE34001EE903AC1F30801F8EE611AC1
:101AA00081EEA22A0BE001EE901ADFED2B2A00BF97
:101AB000F8EE611A116882EEA12AC1F3080101EE65
:101AC000901A1168F8EE611A40EE811A71EE800AE0
:101AD00062EE200AC1F3462101EE101AB8EE411A57
:101AE00031EE001AC0EE811ABCEEE11A80ED001A48
:101AF0001168C1F3064101EE101AB8EE411A31EE39
:101B0000001AC0EE811ABCEEE11A80ED011A1168CC
:101B1000C1F3066101EE101AB8EE411A31EE000A67
:101B200080EE801ABCEEC10A80ED020A30BD04E0EE
:101B300001EE901ADFED092ABAE700210160416049
:101B40008160F3E728440258000000393844025805
:101B50000024744A0090D0030024744C20BCBE4B77
:101B6000494930B5484C0B1D0A681C3409681D688A
:101B7000246802F00303C5F30022C1F30551C4F346
:101B8000CC04002914FB02F200EE102AF8EE400A01
:101B900075D03F4A9FED3D1AB7EE000A6BB1DFEDFD
:101BA0003D1A012B01D0022B64D002EE101A1168ED
:101BB000F8EE422A81EEA22A21E0334C283C236829
:101BC0009B0612D5344B246801EE901A1168C4F3B9
:101BD000C104F8EE612AE34001EE903AC1F3080136
:101BE000F8EE611A81EEA22A0BE001EE901ADFED09
:101BF0002B2A00BFF8EE611A116882EEA12AC1F308
:101C0000080101EE901A1168F8EE611A40EE811A8F
:101C100071EE800A62EE200AC1F3462101EE101A2D
:101C2000B8EE411A31EE001AC0EE811ABCEEE11A8C
:101C300080ED001A1168C1F3064101EE101AB8EEEA
:101C4000411A31EE001AC0EE811ABCEEE11A80EDA5
:101C5000011A1168C1F3066101EE101AB8EE411ABB
:101C600031EE000A80EE801ABCEEC10A80ED020A55
:101C700030BD04E001EE901ADFED092ABAE7002139
:101C8000016041608160F3E7284402580000003998
:101C9000404402580024744A0090D0030024744C3D
:101CA00020BCBE4B2DE9FE4F0546DFF800A450F8DE
:101CB000081B0024FD4FC943019005F1280026466A
:101CC0000AF1240A009008011DD4686E50B1B0F5E5
:101CD000801F0CD0B0F5001F0ED0B0F5401F1ED0F5
:101CE00001240FE0386840F40030386017E00198B4
:101CF000022102F075FC03E00098022102F000FDD1
:101D000004000CD026462888C043C00523D4A86D03
:101D100005281ED2DFE800F00C11161B1B006A6EAE
:101D2000DAF8001021F440111143CAF80010EAE774
:101D3000386840F40030386009E00198002102F072
:101D40004FFC03E00098002102F0DAFC0446C4B125
:101D500000E0012426462888DFF85083C04308F1BC
:101D60002C0840052FD4D5F8A400B0F5C00F28D01A
:101D700010DCB8B1B0F5001F19D0B0F5800F0FD14D
:101D80001AE0AA6DDAF8001021F007011143CAF831
:101D90000010E0E7B0F5000F13D0B0F5200F10D021
:101DA00001240FE0386840F40030386009E0019801
:101DB000002102F015FC03E00098002102F0A0FCD5
:101DC000044694B126462888C043000530D4D5F88F
:101DD000A800B0F1407F29D011DCC0B1B0F1807F04
:101DE0001AD0B0F1007F10D11BE0D5F8A420D8F8AC
:101DF000001021F460011143C8F80010E3E7B0F1CE
:101E0000806F13D0B0F1A06F10D001240FE03868BC
:101E100040F40030386009E00198002102F0E0FB56
:101E200003E00098002102F06BFC044694B12646C2
:101E30002868DFF878B2C0430BF1200B80011FD473
:101E4000E86CD8B110280FD0202812D0302815D037
:101E5000012414E0D5F8A820D8F8001021F0E061A2
:101E60001143C8F80010E3E7386840F400303860E8
:101E700004E00198022102F0B3FB044674B1264647
:101E80002888C043C0042BD4E86DB0F5005F20D093
:101E90000DDCA0B1B0F5805F0FD115E0EA6CDBF886
:101EA000001021F030011143CBF80010E8E7B0F545
:101EB000405F13D0B0F5804F10D001240FE0386898
:101EC00040F40030386009E00198002102F088FBFE
:101ED00003E00098002102F013FC04468CB1264672
:101EE0002888C043800429D4286EB0F5403F23D011
:101EF00010DC08B3B0F5803F14D0B0F5003F0FD12F
:101F000015E0EA6DDAF8001021F4E0411143CAF857
:101F10000010E5E7B0F5802F0ED0B0F5A02F0BD064
:101F200001240AE00198012102F05AFB03E0009825
:101F3000012102F0E5FB044694B126462888C043FF
:101F400040042AD4D5F8AC00B0F1405F23D010DCB7
:101F500008B3B0F1805F14D0B0F1005F0FD115E08D
:101F60002A6EDAF8001021F4E0211143CAF80010BB
:101F7000E4E7B0F1804F0ED0B0F1A04F0BD00124B8
:101F80000AE00198012102F02BFB03E000980121F7
:101F900002F0B6FB044674B126462888C04300040C
:101FA0001FD4E86ED8B1B0F1805F0ED0B0F1005F01
:101FB00010D0012414E0D5F8AC20D8F8001021F09E
:101FC000E0411143C8F80010E7E7386840F40030FA
:101FD000386004E00198012102F002FB044674B16C
:101FE00026462868C043C0011ED4A86CD0B1012881
:101FF0000ED0022811D0032814D0012413E0EA6E79
:10200000DAF8001021F040511143CAF80010E8E757
:10201000386840F40030386004E00198022102F092
:10202000DFFA04466CB126462868C043400255D406
:102030001F48016841F480710160FFF7BBFB8146D6
:102040000EE0AA6CDBF8001021F003011143CBF87D
:102050000010E9E7FFF7AEFBA0EB090064283BD8CE
:1020600013480068C005F5D5BCBBDFF84090B5F853
:10207000B01009F14409D9F8000001F4407100F4EE
:102080004070884211D0D9F80010D9F8002021F40E
:10209000407142F48032C9F80020D9F8002022F4BF
:1020A0008032C9F80020C9F8001003E02C4402581F
:1020B00000480258D5F8B000B0F5807F19D1FFF77D
:1020C00079FB029011E000BFFFF774FB0299411AFF
:1020D00041F28830814208D9032426462878DFF867
:1020E0001494C043C00721D03CE0D9F80000800719
:1020F000EAD5D5F8B010C1F301200328FE480DD071
:10210000016821F47C510160B5F8B020D9F80010C5
:10211000C2F30B021143C9F80010DFE7F74A036866
:1021200002EA111223F47C511143ECE7A86F18283E
:1021300016D005DCA0B1082808D0102804D10AE088
:1021400020280DD028280BD001240AE00198012175
:1021500002F046FA03E00098012102F0D1FA0446A9
:1021600064B126462878C04380071ED4686F0628CD
:1021700019D2DFE800F0160C11161616AA6FD9F85E
:10218000001021F038011143C9F80010EAE7019866
:10219000012102F025FA03E00098012102F0B0FAD3
:1021A00004467CB100E0012426462878C04340075D
:1021B0001FD4D5F89000062819D2DFE800F0160CDD
:1021C000111616166A6FD9F8001021F00701114395
:1021D000C9F80010E9E70198012102F001FA03E0D3
:1021E0000098012102F08CFA0446A4B100E0012419
:1021F00026462878C04380062BD4D5F88C00B0F151
:10220000405F24D011DC10B3B0F1805F15D0B0F185
:10221000005F10D116E0D5F89020D8F8001021F01A
:1022200007011143C8F80010E3E7B0F1804F0ED06A
:10223000B0F1A04F0BD001240AE00198002102F078
:10224000CFF903E00098022102F05AFA044694B153
:1022500026462878C04340062BD4D5F89800B0F520
:10226000406F24D011DC10B3B0F5806F15D0B0F5FD
:10227000006F10D116E0D5F88C20D9F8001021F0AD
:10228000E0411143C9F80010E3E7B0F5805F0ED0DC
:10229000B0F5A05F0BD001240AE00198002102F004
:1022A0009FF903E00098022102F02AFA044694B153
:1022B00026462878C04300062BD4D5F89C00B0F5FC
:1022C000C04F24D011DC10B3B0F5005F15D0B0F5CD
:1022D000804F10D116E0D5F89820D8F8001021F4DE
:1022E000E0511143C8F80010E3E7B0F5004F0ED0FD
:1022F000B0F5204F0BD001240AE00198002102F034
:102300006FF903E00098022102F0FAF9044654B193
:1023100026462878C04300071ED4D5F88000B0F5C3
:10232000805F0AD00FE0D5F89C20D8F8001021F487
:1023300060411143C8F80010EBE70098022102F059
:10234000DFF900B10126D5F88020D9F8001021F47A
:1023500040511143C9F800102878C043C00613D477
:10236000D5F89400B0F5807F05D10098022102F0E5
:10237000C7F900B10126D5F89420D8F8001021F44F
:1023800040711143C8F800102868C043000316D4F8
:10239000D5F8A00038B1B0F5803F09D0B0F5003FC6
:1023A0000BD001240AE00198002102F019F903E0A2
:1023B0000098022102F0A4F904468CB12646286850
:1023C000C043400322D4D5F88400B0F5801F11D05B
:1023D000B0F5001F13D0B0F5401F15D0012414E054
:1023E000D5F8A020D8F8001021F440311143C8F8E6
:1023F0000010E4E7386840F40030386004E00098EA
:10240000012102F07DF904465CB126462868C043EC
:10241000C0031CD4286D70B1B0F5803F10D00124EA
:1024200014E0D5F88420D9F8001021F440111143AC
:10243000C9F80010EAE7386840F40030386004E07A
:102440000198022102F0CCF80446DCB12646286847
:10245000C043800005D40098022102F051F900B178
:1024600001262868C04380031BD4E86FB8B1B0F5DB
:10247000807F10D0B0F5007F11D0B0F5407F0ED036
:1024800001240DE02A6DDBF8001021F480311143A6
:10249000CBF80010DBE7386840F4003038607CB3DC
:1024A00026462868C043C00207D42A6FDAF8001015
:1024B00021F000411143CAF800102868C04380028F
:1024C00007D4AA6EDAF8001021F080711143CAF81F
:1024D00000102868C043400009D40748016821F46F
:1024E000004101600168D5F8B420114301602868FB
:1024F000C04306E05444025810440258CFFFFF0086
:102500001DE007D46A6DDBF8001021F04051114343
:10251000CBF800102868C043000208D4D5F8882002
:10252000D9F8001021F440011143C9F800102879AE
:102530000024C04300F00100204309D00EE0EA6F00
:10254000D9F8001021F440711143C9F80010A8E730
:102550000198002102F044F800B106462879C043F2
:1025600000F00200204305D10198012102F038F863
:1025700000B106462879C04300F00400204305D18D
:102580000198022102F02CF800B106462879C043D8
:1025900000F00800204305D10098002102F0B0F8B7
:1025A00000B106462879C04300F01000204305D151
:1025B0000098012102F0A4F800B106462879C04332
:1025C00000F02000044304D10098022102F098F8A2
:1025D00000B916B10120BDE8FE8F0020FBE7000026
:1025E0002DE9F05F04000F467ED0DFF83882D8F87E
:1025F000000000F00F00B8420CD2D8F8001021F013
:102600000F013943C8F80010D8F8000000F00F009F
:10261000B84269D12078844D40070AD520692968DD
:1026200001F07001884204D9296821F0700101434A
:10263000296020787C4E361D00070AD56069316814
:1026400001F07001884204D9316821F07001014322
:1026500031602078C0060AD5A069316801F4E061D4
:10266000884204D9316821F4E06101433160207867
:10267000DFF8B4B180060BF1080B0CD5E1695846C0
:10268000DBF8002002F07002914204D9026822F0C7
:1026900070020A430260207880070AD5E068296842
:1026A00001F00F01884204D9296821F00F0101438C
:1026B00029602078C0073ED05B49A2682868183995
:1026C00020F47060104328606068022818D0032846
:1026D00019D00968012819D0490700294ADADFF81A
:1026E00048A1AAF1080A00E044E0DAF8002022F04C
:1026F00007020243CAF80020FFF75CF8814612E0A7
:1027000009688903E9E709688901E6E7C905E4E79B
:10271000FFF750F8A0EB090141F28830814202D95D
:102720000320BDE8F09F6168DAF8000000F038008F
:10273000B0EBC10FECD1207880070AD5E06829689A
:1027400001F00F01884204D2296821F00F010143F2
:102750002960D8F80010404601F00F01B9420BD9AA
:10276000016821F00F0139430160006800F00F009B
:10277000B84201D00120D4E7207840070AD520696B
:10278000296801F07001884204D2296821F07001A3
:1027900001432960207800070AD56069316801F09B
:1027A0007001884204D2316821F070010143316028
:1027B0002078C0060AD5A069316801F4E06188423A
:1027C00004D2316821F4E061014331602078800651
:1027D0000CD5E1695846DBF8002002F07002914206
:1027E00004D2026822F070020A43026000F06CF822
:1027F0000E492A682B68C2F3032203F00F038A5C98
:10280000C95C02F01F0201F01F01D040084A20FA03
:1028100001F111600749086007480068BDE8F05FF2
:10282000FFF704B80020005218440258704B00080B
:1028300018000024140000240400002030B500F02B
:1028400043F80B4A0B490C4B15681468C5F3032277
:1028500004F00F048A5C095D02F01F0201F01F0101
:10286000D040064A20FA01F119601060084630BDD8
:1028700018440258704B000818000024140000246B
:1028800000B5FFF7DBFF05490968054AC1F30211EE
:10289000515C01F01F01C84000BD00001C440258FB
:1028A000704B000800B5FFF7C9FF05490968054AE4
:1028B000C1F30221515C01F01F01C84000BD0000BE
:1028C0001C440258704B0008454970B545480968DA
:1028D000434B103B11F0380208D00111082A03D0F5
:1028E000102A0BD0182A0BD0084670BD196889062B
:1028F000FBD51968C1F3C101C84070BD3A4870BD2D
:102900003749374D18310C1D24350A680968266887
:102910002D6802F0030406F00102C1F30511C5F3AE
:10292000CC0515FB02F200EE102AB8EE400AE9B31E
:102930002F4ADFED2E0AB7EE001A6CB1DFED2D1A2B
:10294000012C01D0022C43D002EE101A1068F8EED0
:10295000422A81EEA22A1EE01C68A40611D51B683B
:1029600001EE901A1168C3F3C103F8EE612AD84052
:1029700001EE900AC1F30800F8EE611A81EEA22A76
:102980000BE001EE901ADFED1C2A00BFF8EE611A91
:10299000106882EEA12AC0F3080001EE900AF8EE5A
:1029A000611A40EE201A31EE810A00E015E022EEB5
:1029B000000A1068C0F34620401C00EE900AF8EEB2
:1029C000600A80EE201ABCEEC10A10EE100A70BD3B
:1029D00001EE901ADFED092AD8E7002070BD000053
:1029E000104402580090D00340787D010000003967
:1029F000304402580024744A0024744C20BCBE4B5E
:102A00002DE9F05F04007DD0FF4F2078FE4D183790
:102A1000DFF8F483103DC00748D0D8F800003968CB
:102A200000F03800102815D0182803D101F0030059
:102A300002280FD06068B0F5803F12D010B1B0F519
:102A4000A02F18D0286820F480302860286820F44F
:102A5000802009E02868800328D560680028D2D04B
:102A600024E0286840F480302860606888B1FEF770
:102A7000A1FE064609E0286840F480202860F0E7BF
:102A8000FEF798FE801B64287ED828688003F7D55F
:102A90000CE0FEF78FFE064605E000BFFEF78AFE5B
:102AA000801B6428F0D828688003F7D4207880073A
:102AB00056D5D8F80000DFF85093396810F0380088
:102AC000A9F10C090ED0182801D188070AD0E068B6
:102AD000A8B3296821F0190101432960FEF76AFEB5
:102AE000064628E02868400702D5E06800288AD01A
:102AF000E168286820F0190008432860FEF75AFEB4
:102B0000064606E0D2E000BFFEF754FE801B022816
:102B1000BAD828684007F7D5217CD9F8002022F0E0
:102B2000FE4242EA0161C9F8001019E0FEF742FED8
:102B3000801B0228A8D828684007F7D5ECE7FFE7F4
:102B4000286820F001002860FEF734FE064604E005
:102B5000FEF730FE801B022896D828684007F7D47D
:102B60002078C00646D5D8F80000DFF89C92396876
:102B700000F03800A9F10409082812D0182805D15E
:102B800001F00300012800E0CEE00AD0E06900284F
:102B9000286820D040F080002860FEF70BFE064633
:102BA00015E02868C00502D5E06980287ED194F838
:102BB0002010D9F8002022F07C5242EA0161C9F8C5
:102BC000001017E0FEF7F6FD801B0228A0D8286849
:102BD000C005F7D5EBE720F080002860FEF7EAFD9E
:102BE000064604E0FEF7E6FD801B022890D8286820
:102BF000C005F7D42078000729D58348616964307F
:102C000000298146016811D041F001010160FEF701
:102C1000D1FD064605E000BFFEF7CCFD801B022873
:102C200088D8D9F800008007F6D510E021F001011E
:102C30000160FEF7BFFD064605E000BFFEF7BAFDE6
:102C4000801B022870D8D9F800008007F6D42078BD
:102C5000800623D5A0690028286810D040F4805051
:102C60002860FEF7A7FD064605E000BFFEF7A2FDBF
:102C7000801B022858D828688004F7D50EE020F47D
:102C800080502860FEF796FD064604E0FEF792FDB0
:102C9000801B022848D828688004F7D42078400791
:102CA00051D5DFF86891D9F8001000E015E141F442
:102CB0008071C9F80010FEF77DFD064605E000BFF3
:102CC000FEF778FD801B64282ED8D9F80000C005D7
:102CD000F6D54D4EA068603601280AD008B1052807
:102CE00013D0306820F001003060306820F004001C
:102CF00002E0306840F001003060A06841F2883A9C
:102D000098B1FEF757FD81460AE0306840F00400B4
:102D10003060EEE7FEF74EFDA0EB0901514503D808
:102D200030688007F6D50EE072E0FEF743FD81467D
:102D300006E000BFFEF73EFDA0EB0901514567D854
:102D400030688007F6D4606A00287CD0DFF8B8A02D
:102D5000D8F800100AF1200A4FF6F87B0AF10408AF
:102D6000C1F3C2010329AAF104096DD00228286821
:102D700020F08070286003D0FEF71CFD044681E03F
:102D8000FEF718FD064604E0FEF714FD801B02283E
:102D900075D828688001F7D4E26A40F2F3313868C8
:102DA00054F8283F884340EA021018433860217BDA
:102DB0004FF4FE0C22894FF0FE47208A4902267DFF
:102DC000521E401EA1F5007189B2C2F308021143E0
:102DD000761E0CEA00400143484607EA06621143AA
:102DE000CAF80010D9F8001021F00101C9F800104C
:102DF000D8F80030266A23EA0B0343EAC601C8F874
:102E00000010D9F8001004E010440258004802589D
:102E100035E0A26921F00C011143C9F800100168E6
:102E2000E26921F0020111430160016841F480313F
:102E30000160016841F400310160016841F48021C2
:102E40000160016801E06CE020E041F001010160F7
:102E5000286840F080702860FEF7ACFC044604E06F
:102E6000FEF7A8FC001B022809D828688001F7D5C6
:102E700057E000BFFEF79EFC001B022802D903208A
:102E8000BDE8F09F28688001F4D44AE03968012841
:102E9000DAF8000021D0A26A01F0030393421CD1AA
:102EA000E26AC1F305118A4217D1216BC0F308020F
:102EB000491E8A4211D1616BC0F34622491E9142DC
:102EC0000BD1A16BC0F30642491E914205D1E16BC3
:102ED000C0F30660491E814201D00120D0E7A16CF9
:102EE0004646D8F80000C0F3CC00814219D0D9F88A
:102EF00000004D4620F00100C9F80000FEF75AFC22
:102F00004FEA0007FEF756FCB842FBD0A26C3068CF
:102F100020EA0B0040EAC2003060286840F001005F
:102F200028600020ACE7401EB0F1807F10B501D3CF
:102F3000012010BD4FF0E02460610F21601701F007
:102F40003DFB0020A0610721216110BD7047704743
:102F500070470000F0B590F83C20012A41D0224E85
:102F6000012480F83C40022280F83D2002681F4D79
:102F70005368B242D2F808C001D0AA4203D14F68C8
:102F800023F470033B430F6823F070031F43576023
:102F90000268B24219D0B2F1804F16D0144B9A4257
:102FA00013D0144B9A4210D0134B9A420DD0AA4220
:102FB0000BD0124B9A4208D0114B9A4205D0114BBC
:102FC0009A4202D0104B9A4204D189682CF08003B7
:102FD00019439160002180F83D4080F83C1008467C
:102FE000F0BD0220F0BD00000000014000040140DF
:102FF0000004004000080040000C004000180040A1
:103000000040014000E0004000E4004010B5040032
:1030100003D094F83D0010B107E0012010BD00205E
:1030200084F83C00204600F023F8022084F83D009C
:103030002068211D00F02EFB012084F8480084F850
:103040003E0084F83F0084F8400084F8410084F892
:10305000420084F8430084F8440084F8450084F872
:10306000460084F8470084F83D00002010BD0000B1
:1030700008B501681448B1F1804F14D0134A914249
:1030800020D1016841F002010160006800220121A5
:1030900000F0020000901D20FEF752FC1D20BDE84C
:1030A0000840FEF73FBC016841F001010160006883
:1030B0000022114600F0010000901C20FEF740FCA9
:1030C0001C20ECE708BD0000E84402580004004062
:1030D00090F83D10012901D0012070471A4A0221C1
:1030E00080F83D100168CB6843F00103CB600068B5
:1030F00090421AD0B0F1804F17D01449884214D0B2
:103100001349884211D0134988420ED0124988428F
:103110000BD01249884208D01149884205D0114984
:10312000884202D01049884207D181680F4A114075
:10313000062906D0B1F5803F03D0016841F00101B6
:1031400001600020704700000000014000040040C2
:1031500000080040000C004000040140001800403E
:103160000040014000E0004000E400400700010092
:1031700070B5044690F83C000025012814D03A4B65
:10318000012684F83C60022084F83D0022689068A3
:10319000184020F47F409060086870282FD010DC21
:1031A00010F00F0F03D022E04FF0020070BD4FEA85
:1031B0002012072A1BD2DFE802F0535353534B3936
:1031C0004100B0F1101F4BD009DCB0F5805F0FD08B
:1031D000B0F5005F1ED0B0F5801F08D140E0A0F52B
:1031E000801120393CD010293AD0202938D001252F
:1031F00084F83D60002084F83C00284670BD4A6891
:103200002068D1E9021300F0B7FA2068816841F024
:10321000770109E04A682068D1E9021300F0ACFAAE
:103220002068816841F480418160E1E7CA684968AB
:10323000206801F05BF82068502106E0CA68496800
:10324000206801F064F82068602101F045F8CFE7BC
:10325000CA684968206801F049F820684021F4E70D
:10326000226801461046F0E788FFCEFF70472DE93F
:10327000F041044600680027C6680569A90713D510
:10328000B10711D5FA1E02610121217720688069FA
:103290008007204602D0FFF7E9FF04E000F08BF83A
:1032A000204600F089F82777680716D5700714D5EF
:1032B000226802206FF00401116120772068806984
:1032C00010F4407F204602D0FFF7D0FF04E000F06A
:1032D00072F8204600F070F82777280715D53007D8
:1032E00013D5226804206FF008011161207720684F
:1032F000C0698007204602D0FFF7B8FF04E000F065
:103300005AF8204600F058F82777E80616D5F00658
:1033100014D5226808206FF0100111612077206811
:10332000C06910F4407F204602D0FFF79FFF04E001
:1033300000F041F8204600F03FF82777E80708D072
:10334000F00706D021686FF001000861204600F008
:1033500035F8280601D4A80408D5300606D521681A
:103360006FF4025008612046FFF7F1FDE80508D52B
:10337000300606D521686FF4807008612046FFF79B
:10338000E5FD680608D5700606D521686FF0400097
:103390000861204600F024F8A8060AD5B00608D532
:1033A00021686FF0200008612046BDE8F041FFF77A
:1033B000CFBDBDE8F0817047704700000068012173
:1033C000054AB0F1804F04D0044B984200D15170AF
:1033D0007047117070470000000000240004004096
:1033E000704730B590F88410012918D0012280F878
:1033F00084202421C0F888100022202401680B6852
:103400000D6823F0005325F001050D604266016848
:103410000B60C0F8884080F88420104630BD022040
:1034200030BD70B5044690F8840001281DD00122FB
:1034300084F884202420C4F8880020680568026885
:1034400022F0010202602068826822F060620A4372
:103450008260204601F0E4F92268202100201560F6
:10346000C4F8881084F8840070BD022070BD70B567
:10347000044690F8840001281DD0012284F884209D
:103480002420C4F8880020680568026822F0010240
:1034900002602068826822F060420A43826020460F
:1034A00001F0BEF92268202100201560C4F88810C0
:1034B00084F8840070BD022070BD10B5040003D0F4
:1034C000D4F8880010B107E0012010BD002084F876
:1034D0008400204600F026F82420C4F888002068E4
:1034E000016821F001010160A06A10B1204600F0DE
:1034F0004CF9204600F002FA0128E6D02068416825
:1035000021F4904141602068816821F02A018160A6
:103510002068016841F0010101602046BDE81040CB
:1035200000F097B910B5B4B0044614212EA8FDF7E9
:1035300055F8B8216846FDF751F8194920688842C6
:103540002BD100201E9001210446CDE900106846D1
:10355000FEF7A8FB08B1FDF793FA1248016841F0A5
:1035600010010160006800F0100033900D48103821
:10357000016841F00101016000682EAB022100F0FA
:10358000010033904FF4C060072283E8130006481F
:103590002EA9CDE93142FDF7F1FF34B010BD000096
:1035A00000100140F044025800000258FEE7FEE718
:1035B000FEE770477047FEF703B900002748F0B5F3
:1035C000274A016841F470010160106800F00F00A3
:1035D000072804D2106820F00F00C01D1060214998
:1035E0000020204C10340B681F4D43F001030B608A
:1035F00020600B682B400B60136803F00F03072B50
:1036000004D9136823F00F03DB1D1360154C174A10
:103610001834174B261D371D2060124C154D2834C9
:103620003060261D3860371D23603B1D35601C1D32
:103630003A60251D2E1D1860331D226028603260FF
:1036400018600A6843F2D204064B0B4D22F4802224
:1036500060330A6018602C60F0BD000088ED00E067
:1036600000200052004402587FEDF6EA800201017A
:10367000000202020000FF01004000520148FFF773
:10368000F6BD0000640100240148FFF7F0BD000012
:10369000B00100242DE9F0472D4B4FF0804A2D4D0D
:1036A000026898422C4E2D4F2D4C09D0504507D022
:1036B000A84205D0B04203D0B84201D0A04205D103
:1036C000D1F804C022F070024CEA0202DFF894C084
:1036D000DFF894809842DFF8949015D0504513D0CD
:1036E000A84211D0B0420FD0B8420DD0A0420BD0AA
:1036F000604509D0404507D0484505D01C4DA8423B
:1037000002D01C4DA84203D1CD6822F440722A4356
:103710004D6922F080022A43026098428A68C262A0
:103720000A68826207D0A04205D0604503D04045B8
:1037300001D0484501D10969016301214161016955
:10374000C90703D0016921F001010161BDE8F087DB
:10375000000001400004004000080040000C004050
:103760000004014000400140004401400048014085
:1037700000E0004000E4004042EA032283680A437C
:1037800023F47F410A438260704790F828100907AC
:1037900006D50168836B4A6822F400421A434A60E6
:1037A00090F82810C90706D00168C36A4A6822F455
:1037B00000321A434A6090F82810890706D501683C
:1037C000036B4A6822F480321A434A6090F828104A
:1037D000490706D50168436B4A6822F480221A43E0
:1037E0004A6090F82810C90606D50168C36B8A683C
:1037F00022F480521A438A6090F82810890606D570
:103800000168036C8A6822F400521A438A6090F8B7
:103810002810490611D50168436C4A6822F48012C9
:103820001A434A60416CB1F5801F06D10168836C70
:103830004A6822F4C0021A434A6090F82810090628
:1038400006D50168C26C486820F400201043486027
:1038500070472DE9F84300250446C0F89050FDF765
:10386000A9FF8046206820266FF07E470068000789
:1038700013D50022434631042046009700F02CFA6D
:1038800058B1216851E8000F20F0800041E80002A3
:10389000002AF6D1C4F8886021E02068006840075B
:1038A00022D5002243464FF480012046009700F0C5
:1038B00013FAC8B1206850E8001F21F4907140E865
:1038C0000012002AF6D12068083050E8001F21F0CD
:1038D000010140E80012002AF5D1C4F88C600320F1
:1038E00084F88450BDE8F883C4F88860C4F88C601C
:1038F000E5662567002084F88450F3E72DE9F0435E
:1039000004468068E24E87B0E24B2168D4E9042780
:10391000D4F81CC010430A68002547EA0C07384356
:10392000324002430A602068E268416821F4405155
:10393000114341602268A1699A4201D0206A014383
:103940009668DFF854C3D54FD54806EA0C060E43F7
:1039500096602168666ACA6A22F00F023243CA6220
:103960002268BA420ED1006800F0380018286FD0E3
:103970007ADCB8B308286CD010286BD18BE02828EB
:1039800068D18EE0C7498A4209D1006800F007007B
:1039900006285FD2DFE800F0507D7F818385C24931
:1039A0008A4209D1006800F0070006287BD2DFE8D0
:1039B00000F0437072747678BC498A4209D100687D
:1039C00000F0070006286ED2DFE800F03663656776
:1039D000696BB7498A420BD1006800F007000628DE
:1039E00061D200E043E0DFE800F0275456585A5C0B
:1039F000B0498A4206D1006800F0380018284CD03F
:103A0000B7DD31E0AC498A4209D1006800F0070017
:103A1000062848D2DFE800F0103D3F414345A74962
:103A20008A420BD1006800F0070006283BD2DFE88D
:103A300000F0033032343638002035E0A0498A42A5
:103A400009D1006800F03800182826D091DD0BE07D
:103A500023E01EE027E09B498A420AD1006800F07B
:103A60003800182819D084DD202888D11CE00120D6
:103A70001AE09A4217D18A48001D006800F007003A
:103A8000062810D2DFE800F0030507090B0D02201D
:103A90000AE0042008E0082006E0102004E02020CE
:103AA00002E0402000E080208749DFF820829A422F
:103AB000874A4FF400434FEA21174FF000064ED1DA
:103AC00010281AD006DC022809D004280BD00828B8
:103AD0007ED10DE020283ED0402879D13DE0FDF791
:103AE0008BFF014610E06846FDF798FF01990BE057
:103AF00003A8FEF735F8049906E01068800605D59E
:103B00001068C0F3C100C140002970D0606A6768C6
:103B100038F8102007EB4703B1FBF2F0834257D887
:103B2000B0EB073F54D8002308461946FCF746FC83
:103B300002467808130E120243EA012110183A4691
:103B400071410023FCF73AFC624AA0F540719142B2
:103B50003ED821688FE03946D8E71946D6E7D4F831
:103B60001CC04FF6EF799C4546D1082819D005DCDA
:103B700058B101280CD0042875D10DE0102815D0BB
:103B8000202835D040286ED134E0FEF779FE01E0E0
:103B9000FEF788FE014610E06846FDF73FFF0199F9
:103BA0000BE003A8FDF7DCFF049906E0106880062F
:103BB00004D51068C0F3C100C140C1B1636A606838
:103BC00038F81330B1FBF3F1490001EB500100E08C
:103BD00049E0B1FBF0F0A0F11001494543D84FF6A0
:103BE000F0732168C0F342021840104343E043E001
:103BF0003946E3E71946E1E7082819D005DC58B152
:103C000001280CD004282ED10DE0102815D0202832
:103C10002BD0402827D12AE0FEF732FE01E0FEF744
:103C200041FE014610E06846FDF7F8FE01990BE001
:103C300003A8FDF795FF049906E01068800604D5F7
:103C40001068C0F3C100C140B1B1636A606838F860
:103C50001330B1FBF3F101EB5001B1FBF0F0A0F137
:103C60001001494505D9012506E03946EDE7194619
:103C7000EBE7216880B2C8600120A4F86A00A4F8CC
:103C8000680028466667A66707B0BDE8F0830000B5
:103C9000F369FFCF000C0058FFF4FF110010014042
:103CA000544402580044004000480040004C00408A
:103CB000005000400014014000780040007C0040AB
:103CC00000180140001C01400090D003484B000840
:103CD00000440258FFFC0F002DE9F04799461746B3
:103CE0000D460446089E4FF0000833E0701C31D0AA
:103CF000FDF760FDA0EB0900B04218D8BEB1206806
:103D00000168490726D5802D24D0402D22D0C169D5
:103D1000C94309070DD408250562204600F00AFBB7
:103D2000C4F89050012084F88480BDE8F087032017
:103D3000FBE7C069C04300050CD421684FF4006064
:103D40000862204600F0F6FA2021C4F8901084F8AA
:103D50008480ECE72068C06935EA000004D00020C8
:103D6000B842C3D00020E0E70120F9E7FEE70000F9
:103D700030B59DB04C216846FCF730FC202113A8DB
:103D8000FCF72CFC0220FDF70DFE1E480024016804
:103D900021F4404141F480410160016801F4404157
:103DA0001B9101688904FCD50C210220009004229B
:103DB000CDE90904CDE90B21CDE90D020FAA40257B
:103DC000012382E8130012946846CDE90335FEF71B
:103DD00017FE08B172B6FEE73F20CDE913044FF499
:103DE0008061159413A816941794CDE91841012108
:103DF0001A94FEF7F5FB002801D072B6FEE71DB05D
:103E000030BD0000184802581FB502AA002108233F
:103E10000291CDE9003203910422837AC17A00F045
:103E20000FF81FBD1FB502AA002108230291CDE99A
:103E3000003203910322837AC17A00F001F81FBD9A
:103E4000F8B516461D4604460F46300640EA0521E1
:103E500039430020DDE9063200E0401C9842FCDBDB
:103E60000120009060680568AD68A847002807D069
:103E70000120FCF71FFED4F88400401CC4F8840025
:103E8000F8BD7FB50173002402AB0294052508221A
:103E900003948DF808507026CDE900238DF8096051
:103EA00012228DF80C10837AC17AFFF7C9FF7FBD0B
:103EB0001FB502AA002308210293CDE90012039343
:103EC0000022C17A4AF60623FFF7BAFF1FBD1FB5CD
:103ED00002AC00210823029101220391CDE90034B4
:103EE0008DF808200622837AC17AFFF7A9FF1FBD4B
:103EF0004160028170470000002310B5044CC0E906
:103F000000438172C2720373C0F8843010BD000098
:103F1000884B00082DE9F04104461D464FF47A769F
:103F20001346069800284FF0000005D0B1F1005F5D
:103F30003CD2F206E26003E0B1F5006F36D2E060F9
:103F4000082DA160206201D9082540E0082D3ED24D
:103F5000DFE805F0042F31333537393B606104F178
:103F60002C002A4619468046FCF79FFA082D05D2F8
:103F700060192C30C5F10801FCF70EFBFDF71AFCA7
:103F800004F108070546606842463946FCF7E8FD3B
:103F9000F8B16068D0F89C00800507D50120FCF7D7
:103FA00089FDFDF707FC401BB042ECD90020BDE8BD
:103FB000F0810120D2E70220D0E70320CEE70420E1
:103FC000CCE70520CAE70620C8E70720C6E7082097
:103FD000C4E70120EBE7000070B50446144B01254F
:103FE0008AB0A80761606FF07F460222CDE9010523
:103FF000CDE90325CDE90536606801A9FCF711FE7E
:1040000002220095606801231146FCF749FE012257
:1040100060681146FCF7D8FD6068FDF78CFA6068AF
:1040200000220121FCF758FD0AB0012070BD0000FC
:104030000106AA000021084B4FF08042C0E9003180
:10404000C0E902120162416101618161C1614162A5
:104050008162C16201637047984B000830B587B038
:1040600014216846FCF7BAFA1948016841F080014A
:104070000160016801F080010591016841F00101D2
:104080000160016801F001010591016841F008013A
:104090000160016801F008010591016841F0020129
:1040A0000160006801250024694600F002000590C7
:1040B000E8038DE831000748FDF760FA28026946F9
:1040C0008DE831000448FDF759FA07B030BD000013
:1040D000E0440258000002580004025810B588B0AD
:1040E0001748002440F67F424FF0804140F2E7330A
:1040F000009401940294039404940594069480E837
:104100001600C0E903348461FEF780FF08B172B67F
:10411000FEE74FF48050009009486946FFF728F801
:1041200008B172B6FEE7064804A904940694FEF7A7
:1041300011FF002801D072B6FEE708B010BD0000E4
:104140006401002410B588B017480024154940F2D6
:104150007F2242F20F73009401940294039404941A
:104160000594069480E81600C0E903348461FEF7E4
:104170004DFF08B172B6FEE74FF4805000900A4838
:104180006946FEF7F5FF08B172B6FEE7064804A9D6
:1041900004940694FEF7DEFE002801D072B6FEE716
:1041A00008B010BD00040040B001002417480021F1
:1041B00070B5154D00F114068160042205600123DD
:1041C000C1600925017402244174817486E82C00C1
:1041D000C0E9084383622436C3620825C0E90C3174
:1041E00086E832000323C0E91121C0E91321C0E9A8
:1041F0001521C0E91713C0E91912FCF7C5FF002803
:1042000001D072B6FEE770BD00A00040240000247B
:104210001748002170B5154D00F114068160042285
:1042200005600123C1600925017402244174817471
:1042300086E82C00C0E908438362C362C0E90C3100
:10424000C0E90E1404640323C0E91121C0E913215D
:10425000C0E91521C0E91713C0E91912FCF794FF52
:10426000002801D072B6FEE770BD000000A4004037
:10427000C40000241748002110B5154C0C224FF43F
:10428000E1330460C0E90131C160C0E90412816119
:10429000C161016241628162FFF70FF908B172B634
:1042A000FEE70C480021FFF7E2F808B172B6FEE71E
:1042B00008480021FFF7B5F808B172B6FEE70548D7
:1042C000FFF78FF8002801D072B6FEE710BD00009E
:1042D00000100140FC010024034B82681A400A438D
:1042E00042F00701816070478FFFCFFF10B5036A6E
:1042F000046A23F00A0324F00104046284690B4376
:1043000024F0F00141EA02118161036210BD10B591
:10431000036A046A23F0A00324F010040462846991
:1043200043EA011124F4704343EA023282610162DC
:1043300010BD000010B5026852E8001F21F4907112
:1043400042E80013002BF6D10E4B0268083252E807
:10435000001F194042E80014002CF6D1C16E01295B
:1043600008D1026852E8001F21F0100142E8001352
:10437000002BF6D100212022C0F88C20C1664167B5
:1043800010BD0000FEFFFFEFF0B58E680C69D1E9AB
:10439000005744EA0604DFB145F080452C43866EA1
:1043A000D1E906C54F695E4391F8203045EA0C0516
:1043B000B1F80CC0D0F884E0002047EA03630C4F4A
:1043C0001D430EEB860345EA0C45E3E802450AE08F
:1043D00044EA8544E3E71418155C001DD4F8014055
:1043E00045EA042410C3CC683C5D8442F3D8F0BD98
:1043F000EC4A0008F0B503684FF6FC716D4C426B57
:10440000D3F884508D4345EA8205C3F8845003688D
:1044100053F8845F068F25F47F0545EA06451D6045
:10442000836B654D9F180268D2F888308B4343EA4E
:104430008703C2F88830026852F8883F868F23F4D9
:10444000FE0343EA06431360066856F8A03FC26BBA
:104450008B4307EB420243EA82033360076857F855
:10446000A03FB0F8406023F4FE0343EA06433B60FC
:10447000D0E9103603FB06220368D3F8B0608E4300
:1044800046EA8206C3F8B0600368B0F84860D3F823
:10449000B07027F4FE0747EA0646C3F8B060D0E9DB
:1044A0001267036806FB0722D3F8AC608E4346EA26
:1044B0008206C3F8AC60D0E91467036806FB0722E4
:1044C000D3F8F0608E4346EA8206C3F8F0600368D2
:1044D000B0F85860D3F8F07027F47C1747EA064626
:1044E000C3F8F0600368876D53F8C06F02EB4702B2
:1044F0008E4346EA820119600168B0F85C20D1F869
:10450000C03023F47C1343EA0242C1F8C0200168A2
:1045100090F86020D1F8C03023F07C5343EA026267
:10452000C1F8C020416B04EB8101C166826B01EBD5
:1045300082020267C36B02EBC3024267D0E9103408
:10454000634302EB83028267D0E91234634302EBD8
:104550008302C267D0E91434634302EB8302C0F8DC
:104560008020836D02EBC303C0F88430C46D826E7B
:10457000544303EB8403C0F88830046E544303EBC8
:104580008402C0F89020AA420AD9D0F89C200321C6
:1045900042F02002C0F89C2080F898100120F0BD65
:1045A000002200E004C1D0F890308B42FAD80020FD
:1045B000F0BD000000AC0040FCD30040090700281B
:1045C0004FEA116104DB00F1E02080F8001470472D
:1045D00000F00F0000F1E02080F8141D704700008B
:1045E0002DE9F047454D044689464FF0000A2868FA
:1045F000C04380070AD0414E283E306820F08060DA
:104600003060FDF7D7F80746B04608E00120BDE866
:10461000F08700BFFDF7CEF8C01B022867D8D8F896
:1046200000000001F6D4206829684FF4FE0721F449
:104630007C313E0241EA00302860207AA389B4F838
:1046400004C040022D4D2D495B1E227CACF1010CB3
:104650001035091DA0F5007080B2521ECCF3080C75
:1046600007EA034340EA0C00184306EA02621043DB
:1046700028600868626920F0C000104308600A687A
:10468000A06922F0200202430A60281D0A6822F075
:1046900010020A6002684FF6F873E4699A4342EA2E
:1046A000C40202600868B9F1000F40F010020A600D
:1046B00011D00868B9F1010F11D040F40010086062
:1046C000D8F80000444640F08060C8F80000FDF7CC
:1046D00071F805460DE0086840F40020EFE740F46B
:1046E0008010ECE7FDF766F8401B022801D9032093
:1046F0008DE720680001F5D5504688E72844025828
:104700002DE9F047454D044689464FF0000A2868D8
:10471000C04380070AD0414E283E306820F08050C8
:104720003060FDF747F80746B04608E00120BDE8D5
:10473000F08700BFFDF73EF8C01B022867D8D8F805
:1047400000008000F6D4208829684FF4FE0721F08D
:104750007C713E0241EA00502860207AA389B4F8B7
:1047600004C040022D4D2D495B1E227CACF1010C92
:104770001835091DA0F5007080B2521ECCF3080C4C
:1047800007EA034340EA0C00184306EA02621043BA
:1047900028600868626920F44060104308600A6875
:1047A000A06922F4007202430A60281D0A6822F4FC
:1047B00080720A6002684FF6F873E4699A4342EA2D
:1047C000C40202600868B9F1000F40F480720A6008
:1047D00011D00868B9F1010F11D040F08070086065
:1047E000D8F80000444640F08050C8F80000FCF7BC
:1047F000E1FF05460DE0086840F48000EFE740F473
:104800000000ECE7FCF7D6FF401B022801D903208B
:104810008DE720688000F5D5504688E72844025887
:1048200030B5416EB9B101680D4B03F108048A68D7
:104830008968C2F34262490F5D5C615C2D01B5FB82
:10484000F1F1A0F86A10995CA25C0901B1FBF2F1E8
:10485000A0F8681030BD0121A0F86A10F8E7000048
:10486000604B000810B500F001F810BD10B5FBF763
:10487000DFFE10BD10B500F001F810BD10B504004A
:1048800007D1012405E0FBF7FFFE006800B90448EA
:1048900080472046FBF743FF0028F4D010BD0000FE
:1048A00093070008024800210160001D0160704765
:1048B0002000002070B50A4D022400260820FFF7D2
:1048C000D9FFC5E900042868641E40F82460FAD1C5
:1048D0002846BDE87040034A0349FBF7EFBF0000DC
:1048E0002800002000000008D54A000802480021E6
:1048F0000160001D016070471C000024ADF5047DBF
:1049000000248094819482948394FCF7DDFF01203D
:104910008DF80C021F218DF8081287228DF80922CC
:104920008DF80D028DF8000280A88DF80A428DF8EE
:104930000E428DF8014281948DF80B428DF80F42A2
:10494000FCF794FF0420FCF7CDFFFCF741FFFFF7D5
:104950000FFAFFF783FBFFF729FCFFF759FCFFF77E
:10496000BDFBFFF7EFFBFFF785FC5548FEF7B0FBFB
:1049700053484C30FEF7ACFB73A8FFF75BFB66A80F
:10498000FFF758FB4E4966A8A039FFF725FB4D49B4
:1049900073A8FFF721FB01226846FD21FFF7ACFA5F
:1049A0000222FD2122A8FFF7A7FA0122002144A834
:1049B000FFF7A2FA0022684666A9FFF799FA0022DB
:1049C00066A922A8FFF794FA002273A944A8FFF76A
:1049D0008FFA6846FFF718FA6846FFF778FA6846D4
:1049E000FFF720FA00216846FFF74BFA22A8FFF7ED
:1049F0000BFA22A8FFF76BFA22A8FFF713FA00219F
:104A000022A8FFF73EFA6420FCF754F8DFF8B8A0BC
:104A10004FF48079DFF8B4804FF4FA754E4649467A
:104A200057465046FCF7BDFE2846FCF743F8314692
:104A30003846FCF7B1FE98F80010464659B10128F7
:104A400013D022A8FFF7E0F96846FFF7DDF9284602
:104A5000FCF730F8347070780028DFD044A8FFF7F6
:104A600027FAFCF7A7FE07460FE02846FCF722F8D6
:104A70002846FCF71FF82846FCF71CF82846FCF7E8
:104A800019F8E4E70120FCF715F8B07820B9FCF735
:104A900091FEC01B6428F5D3B07870B10B48DFEDF0
:104AA0000C0A0830C08840BA00EE100AB8EE400A7E
:104AB00080EE201A86ED011AB4707470AEE7000023
:104AC0006401002424000024000402580000002493
:104AD00000007A4410B504460068FFF7C3FE204684
:104AE00010BD4FF04070E1EE100A70470001020364
:104AF00004050607080C10141820304000000000C0
:104B000000000000000000000000000000000000A5
:104B1000010000000200000003000000040000008B
:104B20000000000005000000000000000000000080
:104B3000000000000600000000000000000000006F
:104B40000000000007000000010002000400060051
:104B500008000A000C001000200040008000000146
:104B6000010101030701000008040204080101011A
:104B70000000000001020304010203040607080903
:104B80000000000000000000000000000000000025
:104B90000000000000000000000000000000000015
:104BA000153F0008000000000000000000000000A9
:104BB000FC4B000800000020300000000803000843
:104BC0002C4C00080000002424000000080300080A
:104BD0002C4C000830000020600400002403000872
:104BE000504C0008240000246C040000240300083A
:104BF000FDFCFFFFB1FCFFFFBDFCFFFF010000005B
:104C00001000000000000000000000000000000094
:104C10000000000000000000000000000000000094
:104C20000000000000000000000000000000000084
:104C30000000000000000000000000000000000074
:104C40000090D0030090D00300000000000000009E
:04000005080002CD20
:00000001FF
