:020000040800F2
:10000000480400207D030008C32F0008BF2F00080C
:10001000C12F00088D0900089B3100080000000076
:10002000000000000000000000000000C72F0008D2
:100030008F09000800000000C52F0008C92F000824
:100040009703000897030008970300089703000828
:100050009703000897030008970300089703000818
:100060009703000897030008970300089703000808
:1000700097030008970300089703000897030008F8
:1000800097030008970300089703000895090008E4
:10009000AD090008A1090008B90900089703000884
:1000A00097030008970300089703000897030008C8
:1000B0008D30000899300008970300089703000866
:1000C00097030008970300089703000897030008A8
:1000D0009703000897030008970300089703000898
:1000E000970300089703000800000000970300082A
:1000F0009703000897030008970300089703000878
:100100009703000897030008970300089703000867
:100110009703000897030008970300089703000857
:100120009703000897030008970300089703000847
:100130009703000897030008970300089703000837
:1001400000000000000000000000000000000000AF
:100150009703000897030008970300089703000817
:100160009703000897030008970300089703000807
:100170009703000897030008970300080000000099
:1001800097030008970300089703000897030008E7
:1001900097030008970300089703000897030008D7
:1001A0009703000897030008970300080000000069
:1001B00097030008970300089703000897030008B7
:1001C00097030008970300080000000000000000EB
:1001D000000000000000000097030008000000007D
:1001E000000000000000000000000000000000000F
:1001F00000000000000000009703000897030008BB
:100200009703000897030008000000009703000808
:100210009703000897030008970300089703000856
:10022000970300080000000097030008000000008A
:1002300097030008970300080000000097030008D8
:100240009703000897030008970300089703000826
:100250009703000897030008970300089703000816
:100260009703000897030008970300089703000806
:100270009703000897030008970300080000000098
:1002800097030008970300089703000897030008E6
:10029000000000009703000897030008000000001A
:1002A0000000000097030008970300089703000868
:1002B00097030008970300089703000897030008B6
:1002C00097030008970300089703000800F002F85E
:1002D00000F045F80AA090E8000C82448344AAF19B
:1002E0000107DA4501D100F03AF8AFF2090EBAE899
:1002F0000F0013F0010F18BFFB1A43F0010318475A
:10030000E43C0000243D0000103A24BF78C878C1C6
:10031000FAD8520724BF30C830C144BF04680C600B
:10032000704700000023002400250026103A28BF53
:1003300078C1FBD8520728BF30C148BF0B60704757
:100340001FB503F0FCFD9DE8030000F041F900F04B
:100350000BFB1FBD10B5002000F080FA10BD00F0AF
:10036000E1F91146FFF7ECFF03F0E4FC00F025FA99
:1003700003B4FFF7EFFF03BC00F0CAF90948804758
:1003800009480047FEE7FEE7FEE7FEE7FEE7FEE777
:10039000FEE7FEE7FEE7FEE704480549054A064B8F
:1003A00070470000CD2F0008CD020008480200244D
:1003B000480400204804002448000020032A40F29A
:1003C000308010F0030C00F0158011F8013BBCF1F7
:1003D000020F624498BF11F801CB00F8013B38BF0F
:1003E00011F8013BA2F1040298BF00F801CB38BF1D
:1003F00000F8013B11F0030300F02580083AC0F03B
:10040000088051F8043B083A51F804CBA0E80810E2
:10041000F5E7121D5CBF51F8043B40F8043BAFF315
:100420000080D20724BF11F8013B11F801CB48BF6F
:1004300011F8012B24BF00F8013B00F801CB48BFA5
:1004400000F8012B704710B5203AC0F00B80B1E8DE
:100450001850203AA0E81850B1E81850A0E81850F9
:10046000BFF4F5AF5FEA027C24BFB1E81850A0E802
:10047000185044BF18C918C0BDE810405FEA827C1C
:1004800024BF51F8043B40F8043B08BF7047D20733
:1004900028BF31F8023B48BF11F8012B28BF20F8D4
:1004A000023B48BF00F8012B70474FF000020429BF
:1004B000C0F0128010F0030C00F01B80CCF1040C93
:1004C000BCF1020F18BF00F8012BA8BF20F8022BC7
:1004D000A1EB0C0100F00DB85FEAC17C24BF00F86D
:1004E000012B00F8012B48BF00F8012B70474FF09B
:1004F000000200B5134694469646203922BFA0E874
:100500000C50A0E80C50B1F12001BFF4F7AF09077F
:1005100028BFA0E80C5048BF0CC05DF804EB890070
:1005200028BF40F8042B08BF704748BF20F8022BB3
:1005300011F0804F18BF00F8012B704770477047CB
:10054000704770B50446051F00F022F80068002CC3
:1005500014BF446870BD002C18BFAC423CBF20469D
:100560006468F8D301680A18AA4218BF456003D12D
:100570002A6805461144016028684119A1421CBF40
:100580006C6070BD6168696021680844286070BD56
:1005900000487047F0010024004870471C02002406
:1005A000704770477047704738B504460A460020C8
:1005B0006946AFF30080002808BF38BD02460099A5
:1005C000204600F0E0F8012038BD012000F01CB901
:1005D000F8B5AFF30080054600200C46102000BFA0
:1005E0000646A819A0420DD9324669460020AFF34D
:1005F0000080070008BF00F007F90098A04218BF6C
:100600000546C419FFF7C4FF05600746F01D20F03A
:1006100007004619284600F0AFF8B44208BFF8BDFD
:10062000A21B31463868BDE8F84000F0ACB870B5A0
:100630000646FFF7ADFF056806F10B0020F0070442
:10064000B4429CBF002070BD2B466A68BAB11068E6
:10065000A04210D304F1080188423CBF50685860A2
:1006600007D35168101941601168091B0160586077
:100670001460101D70BD13465268002AE7D1214650
:100680002846FFF791FF0028DED170BD10B500208D
:1006900000F0B3F8FFF75EFEBDE81040012000F067
:1006A00037B8AFF3008010B500F00DF8016919B14B
:1006B00000220261884701E080688047FFF7E6FF7B
:1006C00010B5FFF7E3FF70B500F052F80468054677
:1006D000A4B92020FFF7ABFF040011D00949002086
:1006E0002C60C4E900010849A160207320616061A9
:1006F0000649A06109B100F08EF8E061204670BDA6
:10070000FFF7C4FF00000000C10600080000000061
:1007100001491820ABBEFEE72600020000487047E2
:10072000E80100247546FFF7F9FFAE46050069466B
:10073000534620F00700854618B020B5FFF72CFE81
:10074000BDE820404FF000064FF000074FF00008D2
:100750004FF0000B21F00701AC46ACE8C009ACE853
:10076000C009ACE8C009ACE8C0098D46704700007C
:10077000004870472402002400210160C0E90110F4
:10078000704710207047034640688C46002818BF09
:1007900088423CBF03464068F8D318681844884232
:1007A00007D00CF1030020F00700001D411A521A77
:1007B0000146081D0A60FFF7C4BE10B50446AFF33A
:1007C00000802046BDE81040FFF7D2BD2DE9F04182
:1007D000074615460E461020FFF729FF04000AD0F1
:1007E0006760C4E9026500F035F8016821600460C3
:1007F0000020BDE8F0810120FBE710B500F054F8BF
:10080000BDE8104000F04BB810B500F065F8BDE849
:10081000104000F044B810B58820FFF708FF00280A
:1008200001D00021017010BD802902D808B10178E3
:1008300009B100207047012100F8081B704718B16A
:1008400000F10802914201D00020704700210170A0
:100850007047704700487047200200242DE9F0419E
:100860000646FFF7F7FF8046454613E016B1E068FD
:10087000B0420ED120682860D4E90101D8F8007098
:1008800088472046FFF75DFED8F80000B842EBD15C
:1008900000E025462C68002CE8D1BDE8F081002856
:1008A00001D0FFF735BF704710B5002102A000F05E
:1008B0003BF8012010BD0000534947414252543AD1
:1008C0002041626E6F726D616C207465726D696E2D
:1008D0006174696F6E00000010B5012805D0002119
:1008E00003A000F021F8012010BD09A1F8E70000E5
:1008F00053494752544D454D3A204F7574206F6609
:100900002068656170206D656D6F72790000000070
:100910003A2048656170206D656D6F727920636F54
:10092000727275707465640070B505460C460A20D5
:1009300000E06D1C00F011F835B128780028F8D1DE
:1009400002E0641C00F009F814B120780028F8D106
:10095000BDE870400A20AFF3008008B569468DF805
:1009600000000320ABBE08BD70B5064C7C44064DAC
:100970007D4403E0206820448047241DAC42F9D127
:1009800070BD0000B4360000BC360000FEE77047C2
:1009900072B6FEE7014800F0EFB900001000002435
:1009A000014800F0E9B9000010000024014800F0FF
:1009B000E3B90000B0000024014800F0DDB90000F8
:1009C000B000002470B5044600F07EFE0546601CB1
:1009D00002D004480078044400F076FE401BA04298
:1009E000FAD370BD1800002010B590F89830012B94
:1009F00009D0022B07D0D0F89C1041F00201C0F8BA
:100A00009C10012010BD03689C6D0C4203D1DC6D6D
:100A100044F0010404E09C6D31EA04041FD0032477
:100A2000DC658B0505D50368D3F8E0401443C3F8B3
:100A3000E0404B0505D50368D3F8E4401443C3F800
:100A4000E4400068084A01EA0203446D074A1C4377
:100A50004465106840EA91701060002010BDDC6DA4
:100A600044F00204DCE70000FFFFCF3F14A8004081
:100A700070B5044690F89800022804D0D4F89C0081
:100A800040F008000DE02068D0F8C03013F07C5F23
:100A90000BD0D0F8C4309B020CD5D4F89C0040F4A5
:100AA0000070C4F89C00012070BDD4F89C0040F098
:100AB0002000F6E7D0F8C400C0F3044520462B46DA
:100AC00002F0A0FE21680120A840C1F8D000C4F8BF
:100AD0009400002070BD704790F89830012B07D02B
:100AE000D0F89C1041F00401C0F89C100120704720
:100AF00061B10068012913D0D0F8B01021F0FE4197
:100B000041EA0261C0F8B010002070470068D0F8D8
:100B1000F01021F07C5141EA0261C0F8F010F3E7D7
:100B2000D0F8A01021F0FE4141EA0261C0F8A01007
:100B3000EAE770B590F89820012A09D0022A07D078
:100B4000D0F89C1041F00201C0F89C10012070BD4B
:100B50000B68CA6883B10B69072A43EA427325D040
:100B60000C7A4A6942EA84724968006F00EBC1005E
:100B7000C0E90032002070BD072A0DD00C7AD606DD
:100B80000D8A4B6943EA847246EA0543C06E4968A0
:100B90001A4340F82120EDE70B8A4FF06055D1E968
:100BA000062442EA034245EA0423EFE78A69DBE7C9
:100BB00030B590F89850039C012D07D0D0F89C10C8
:100BC00041F00401C0F89C10012030BD0D01016806
:100BD00045EA820040EA43002043C1F8800000203B
:100BE00030BD704770470000F0B590F89850002471
:100BF000022D04D0D0F89C1041F0080129E04029D2
:100C000005D0412929D0056D8D4219D942E00568EA
:100C1000D5F8A06016F4FE0F12D0D5F8A4607606C1
:100C200013D0D5F8A460F60105D5D5F8A06016F06C
:100C3000004F00D50124D5F8A470466F456C24E020
:100C4000D0F89C1041F0200103E0D0F89C1041F452
:100C50008071C0F89C100120F0BD0568D5F8B06027
:100C600016F4FE0FECD0D5F8B4607606EDD0D5F8CA
:100C7000B460F60105D5D5F8B06016F0004F00D588
:100C80000124D5F8B470866FC56CC7F305273C44C2
:100C9000654302E0456DC66F4D4306EB85052E6842
:100CA00016F0804656602E6836D026F060461660F4
:100CB000D5F800C000262E4F0CF0005CC2F808C02A
:100CC000D5F800C00CF0004CC2F810C0B5F804C054
:100CD0001FFA8CFCC2F81CC0D5F804C0CCF3034C3E
:100CE000C2F80CC0D5F804C00CF4801CC2F814C0C3
:100CF000D5F804C00CF4001CC2F818C0D5F804C024
:100D0000CCF3066CC2F820C0D5F804C008354FEA11
:100D1000DC7CC2F824C008E0C6F38A46C7E700BFFF
:100D200015F806C003F806C0761CD2F80CC017F8F8
:100D30000CC0B445F4D840290AD041290CD0202950
:100D40004FF001020CD200688A40C0F898200DE0F4
:100D50000068C0F8A84009E00068C0F8B84005E0A5
:100D6000006801F01F018A40C0F89C200020F0BDFF
:100D7000483F0008704700002DE9FF5FDFF80CB323
:100D800004460BF10401DBF8000025680F68AA4651
:100D90008007D5F85090696DD5F850806E6D2A6D3A
:100DA000D5F854C02B6D00EA8770009009F47049A3
:100DB0006F6D286D01EA09010191DAF85410DAF833
:100DC0005490DAF8505008F00F0806EA0806029628
:100DD00002F0F00203F071536FEA09061F4000F0C1
:100DE00060700CEA020CCDF80CC0F20501EA0009B3
:100DF0000CD4E843C00509D400214FF48073CAF82D
:100E00005030CBF800102046FFF7B4FF700512D425
:100E1000E84340050FD4206800234FF48068D0F8E1
:100E2000DC20D0F8E410C0F85080CBF8003011403E
:100E3000204600F029FBDFF858A2009850B1226844
:100E4000830F00EA0A001065CBF8003020460099B5
:100E5000FFF741FE019850B12268830F00EA0A00B3
:100E60001065CBF800302046019900F00FFB029886
:100E700050B12268830F00EA0A001065CBF80030F9
:100E80002046029900F0CEFA039850B12268830FF1
:100E900000EA0A001065CBF800302046039900F004
:100EA000D3FA30050CD4E843000509D423680020A8
:100EB0004FF400621A65CBF80000204600F0E7FA14
:100EC000B00512D4E84380050FD4206800234FF406
:100ED0000078D0F8D820D0F8E010C0F85080CBF8D7
:100EE00000301140204600F0D0FA30030CD4E84323
:100EF000000309D4236800204FF400221A65CBF8C0
:100F00000000204600F08CFAF0030CD4E843C00344
:100F100009D4236800204FF480321A65CBF8000012
:100F2000204600F0B0FA70030CD4E843400309D423
:100F3000226800204FF480231365CBF80000204680
:100F400000F0A0FAB0030FD4E84380030CD4236868
:100F500000204FF400321A65CBF80000D4F89C0052
:100F600040F08000C4F89C00B9F1000F0BD022685B
:100F70004FEA997309EA0A001065CBF80030494638
:100F80002046FFF72FFE5FB12268BB0F07EA0A0079
:100F90001065CBF80030D4F89C003843C4F89C00AE
:100FA0003C492068884268D1606881468068800733
:100FB00063D0D9F82060D9F82410D9F82080D9F866
:100FC0002400D9F820C0D9F82470D9F82030D9F8F5
:100FD0002450D9F8202003F4FC4306F00F0AD9F876
:100FE00024601D40D9F824B008F030080CF4C07C0F
:100FF00002F4F02211EA0A0100EA080807EA0C07E5
:1010000006EA0206D9F820A004D0C9F8201020462C
:1010100000F035FAB8F1000005D061680862414679
:10102000204600F02EFA6FEA0B0040060ED46FEA5D
:101030000A0040060AD460684021C36BC26B01629B
:101040002046190C02F03F0200F01AFA2FB1606836
:1010500007623946204600F011FA35B16068056232
:10106000D4F89C002843C4F89C0036B1606806623E
:10107000D4F89C003043C4F89C00D4F89C000028AD
:1010800002D02046FFF7ADFDBDE8FF9F10A800404D
:10109000FFFFCF3F00A000402DE9F04194B08D4903
:1010A0004C2204466846FFF7CEF964B18A4D2068A9
:1010B000A84202D100F58070606094F898004FF06B
:1010C000000820B108E0012014B0BDE8F0812046FE
:1010D00084F8998000F002F92068816921F01001FC
:1010E000816100F0F1FA0327064604E000F0ECFA13
:1010F000801B0A2811D8206880690007F6D4206870
:10110000816941F00101816100F0DEFA06460DE0DF
:1011100000F0DAFA801B0A2808D9D4F89C0040F0C5
:101120000100C4F89C0084F89870CCE720688069BE
:10113000C007EDD02068816941F002018161207C07
:1011400001282068816937D041F040018161607CCD
:1011500001282068816932D021F480418161A07C1E
:101160000128206881692DD041F480518161206877
:10117000A268816921F4407111438161206881690D
:1011800021F0A40181612068016921F01001016151
:10119000E068012819D010B302281BD020688169AB
:1011A00041F0800181612068016941F01001016115
:1011B000E06803280ED012E021F04001C6E741F4B8
:1011C0008041CBE721F48051D0E72068816941F06C
:1011D000040103E02068816941F020018161207EE3
:1011E0006FF0FF02D4E90773A68A1102400602EBF2
:1011F0000727A0F10070384327685B1E184301EBF6
:1012000006463043F861A068B0F5407F11D104F183
:101210002800A68C6FF00F0C89C801EB0641401E18
:1012200002EB0322104322680CEB07131843084318
:10123000D060206E30B12068626ED0F8C0101143CB
:10124000C0F8C010D4E917126846D14209D021680D
:10125000A36E51F8C82F50F8233022F007021A432A
:101260000A60216C49B12168626C51F8BC3F50F8AA
:10127000226023F0070232430A60A16C51B1216859
:10128000E36C51F8BC2F50F8233022F0700242EA90
:1012900003120A60216D51B12168626D51F8BC3FA3
:1012A00050F8220023F4E06242EA0020086020683F
:1012B000A84204D16068816821F003018160C4F80C
:1012C00094800121C4F89C8084F89810204602F094
:1012D000CFFAF9E6583F000800A000402DE9F0439E
:1012E000B5B0804614212EA8FFF701F9B821684651
:1012F000FFF7FDF8454D0026D8F800004FF080516B
:10130000434A0C3D404F4FF00208404C90424FF092
:10131000090938D100201B914A13CDE90020684605
:1013200000F0F4FA08B1FFF733FB3868401C38606E
:10133000012807D1206840F480702060206800F404
:1013400080703390286840F00800286028680322E5
:101350002E922EA900F00800CDE92F863196CDE916
:1013600032902C4800F094F800221320114600F02F
:1013700071FA132000F060FA00221520114600F0E7
:1013800069FA15203BE0244A90423AD100201B9193
:101390004FF40042CDE90020684600F0B7FA08B1EA
:1013A000FFF7F6FA3868401C3860012807D120683A
:1013B00040F480702060206800F4807033902868CA
:1013C00040F002002860286860222E922EA900F0CA
:1013D0000200CDE92F863196CDE932900F4800F01A
:1013E00057F800221420114600F034FA142000F0BF
:1013F00023FA00221620114600F02CFA162000F0E5
:101400001BFA35B0BDE8F08314000020EC4402580C
:1014100000A00040000C025800A400400004025844
:101420007047000000B58DB000216A460AAB0A91F2
:101430000B914021FFF7D8FB0249012008700DB045
:1014400000BD000002000020704790F898100129AC
:1014500007D0D0F89C1041F00401C0F89C10012086
:101460007047022180F89810002201688B6923F0F0
:1014700001038B61C0F89C2010467047704770478D
:1014800070477047704770477047704770477047A4
:101490002DE9F84F03247A4D00234FF001094FF056
:1014A000B04B4FF00F0AE4E009FA03F6324078D06F
:1014B0000F7907F00307012F01D0022F1AD1876897
:1014C0004FEA430ED1F80CC004FA0EF827EA0807D9
:1014D0000CFA0EFC4CEA070CC0F808C0476891F8FB
:1014E00004C0B743CCF3001C0CFA03FC4CEA070C15
:1014F000C0F804C00E79F643B6070BD0C6684FEAB1
:1015000043088F6804FA08FC26EA0C0607FA08F775
:101510003743C7600E7906F00306022E12D1DE08AB
:101520000F694FEA437C00EB8606B646366A4FEAFF
:10153000DC6C0AFA0CF807FA0CF726EA08063743BF
:10154000CEF820700F7906684FEA430807F00307CA
:1015500004FA08FC07FA08F726EA0C063743076086
:101560004E6816F4403F1CD0464E376847F00207DD
:10157000376036689F0706F00206009623F00306E0
:1015800006F1B046B6463F0FD6F80864DFF8F8809B
:101590000AFA07FC404526EA0C0603D14FF0000C7E
:1015A0003AE065E0DFF8E4C0604502D14FF0010C9D
:1015B00032E0DFF8DCC0604502D14FF0020C2BE0D6
:1015C000DFF8D0C0604502D14FF0030C24E0DFF813
:1015D000C8C0604502D14FF0040C1DE0DFF8BCC06C
:1015E000604502D14FF0050C16E0DFF8B4C060454D
:1015F00002D14FF0060C0FE0DFF8A8C0604502D121
:101600004FF0070C08E0DFF8A0C0604502D14FF0B2
:10161000090C01E04FF00A0C0CFA07FC4CEA060C2E
:10162000CEF808C44F68DBF80060FF0226EA020625
:1016300000D516435F46CBF80060D1F804C0DBF854
:1016400004605FEA8C2C26EA020600D516437E6011
:101650006E684F6826EA0206BF0300D516436E6027
:101660002E684F6826EA0206FF0300D516432E6057
:101670005B1C0A6832FA03F67FF416AFBDE8F88FF8
:1016800080000058F4440258000002580004025838
:1016900000080258000C02580010025800140258AA
:1016A00000180258001C0258002402580069084023
:1016B00000D001207047426921EA02030A4043EA50
:1016C0000241816170470000014880687047000056
:1016D0001800002002488168027811448160704738
:1016E00018000020032010B500F0D4F800F0DAFE56
:1016F0000F4A104914681368C4F3032203F00F0360
:101700008A5CC95C02F01F0201F01F01D0400A4A46
:1017100020FA01F11160094908600F2000F010F86B
:1017200008B1012010BD00F079F8002010BD0000C4
:1017300018440258A43F00080400002400000024BC
:1017400070B50D4D04462878A0B14FF47A71B1FB05
:10175000F0F00A490968B1FBF0F001F0D2F948B99C
:10176000102C07D200222146501E00F073F80020F2
:101770006C6070BD012070BD1800002000000024C6
:10178000154BF0B5083B427813491A600B680A1FE5
:1017900023F001030B6043681360057BC67A827AED
:1017A000437B2D07847B45EA0665C77B90F809C01B
:1017B000067A90F800E045EAC24040EA834040EAF9
:1017C000444040EA074040EA0C2040EA460040EA34
:1017D0000E000860F0BD0000A0ED00E0BFF35F8FD9
:1017E000044800210368034A23F480330360703205
:1017F0001160704724ED00E0074A40F001000649FF
:1018000070321060086840F480300860BFF34F8F7A
:10181000BFF36F8F7047000024ED00E0054808B566
:10182000016841F002010160006800F002000090D0
:1018300008BD0000F4440258002809DB410900F00B
:101840001F028900012001F1E0219040C1F8000150
:10185000704700000E4BF0B41B680D46C3F3022323
:10186000C3F10706042E00D90426191D072901D249
:10187000002300E0DB1E012404FA06F19C40491E0F
:101880002940641E994014402143F0BC02F0D4B8B2
:101890000CED00E0064900F0070210B54FF6FF041A
:1018A0000868044B204040EA02201843086010BD3D
:1018B0000CED00E00000FA05134970B50A68D24348
:1018C000520705D5096801F00701814213D118E0DC
:1018D0000A6822F0070202430A60FFF7F5FE0A4D8C
:1018E0004FF47A760446083D07E000BFFFF7ECFEB0
:1018F000001BB04201D9012070BD2868C04380049C
:10190000F4D4002070BD00000C4802582DE9FE4FB1
:101910000546DFF800A450F8081B0024FD4FC9431A
:10192000019005F1280026460AF1240A00900801DA
:101930001DD4686E50B1B0F5801F0CD0B0F5001FFB
:101940000ED0B0F5401F1ED001240FE0386840F4DF
:101950000030386017E00198022102F07FF803E0C0
:101960000098022102F00AF904000CD026462888CB
:10197000C043C00523D4A86D05281ED2DFE800F0BF
:101980000C11161B1B006A6EDAF8001021F44011CE
:101990001143CAF80010EAE7386840F400303860B4
:1019A00009E00198002102F059F803E000980021B5
:1019B00002F0E4F80446C4B100E001242646288879
:1019C000DFF85083C04308F12C0840052FD4D5F828
:1019D000A400B0F5C00F28D010DCB8B1B0F5001FDE
:1019E00019D0B0F5800F0FD11AE0AA6DDAF8001007
:1019F00021F007011143CAF80010E0E7B0F5000F2D
:101A000013D0B0F5200F10D001240FE0386840F457
:101A10000030386009E00198002102F01FF803E06F
:101A20000098002102F0AAF8044694B126462888BE
:101A3000C043000530D4D5F8A800B0F1407F29D0CC
:101A400011DCC0B1B0F1807F1AD0B0F1007F10D1AD
:101A50001BE0D5F8A420D8F8001021F46001114350
:101A6000C8F80010E3E7B0F1806F13D0B0F1A06FB9
:101A700010D001240FE0386840F40030386009E0ED
:101A80000198002101F0EAFF03E00098002102F034
:101A900075F8044694B126462868DFF878B2C0434A
:101AA0000BF1200B80011FD4E86CD8B110280FD0A7
:101AB000202812D0302815D0012414E0D5F8A82011
:101AC000D8F8001021F0E0611143C8F80010E3E7F6
:101AD000386840F40030386004E00198022101F0D9
:101AE000BDFF044674B126462888C043C0042BD4E9
:101AF000E86DB0F5005F20D00DDCA0B1B0F5805FDF
:101B00000FD115E0EA6CDBF8001021F03001114331
:101B1000CBF80010E8E7B0F5405F13D0B0F5804F88
:101B200010D001240FE0386840F40030386009E03C
:101B30000198002101F092FF03E00098002102F0DB
:101B40001DF804468CB126462888C043800429D459
:101B5000286EB0F5403F23D010DC08B3B0F5803FCD
:101B600014D0B0F5003F0FD115E0EA6DDAF800109F
:101B700021F4E0411143CAF80010E5E7B0F5802FE9
:101B80000ED0B0F5A02F0BD001240AE0019801215E
:101B900001F064FF03E00098012101F0EFFF04462B
:101BA00094B126462888C04340042AD4D5F8AC0016
:101BB000B0F1405F23D010DC08B3B0F1805F14D0E7
:101BC000B0F1005F0FD115E02A6EDAF8001021F4B1
:101BD000E0211143CAF80010E4E7B0F1804F0ED0C5
:101BE000B0F1A04F0BD001240AE00198012101F0CF
:101BF00035FF03E00098012101F0C0FF044674B1F5
:101C000026462888C04300041FD4E86ED8B1B0F13E
:101C1000805F0ED0B0F1005F10D0012414E0D5F841
:101C2000AC20D8F8001021F0E0411143C8F80010B2
:101C3000E7E7386840F40030386004E0019801219B
:101C400001F00CFF044674B126462868C043C00169
:101C50001ED4A86CD0B101280ED0022811D00328C0
:101C600014D0012413E0EA6EDAF8001021F040519C
:101C70001143CAF80010E8E7386840F400303860D3
:101C800004E00198022101F0E9FE04466CB1264609
:101C90002868C043400255D41F48016841F4807150
:101CA0000160FFF711FD81460EE0AA6CDBF8001021
:101CB00021F003011143CBF80010E9E7FFF704FD21
:101CC000A0EB090064283BD813480068C005F5D58F
:101CD000BCBBDFF84090B5F8B01009F14409D9F861
:101CE000000001F4407100F44070884211D0D9F82E
:101CF0000010D9F8002021F4407142F48032C9F874
:101D00000020D9F8002022F48032C9F80020C9F858
:101D1000001003E02C44025800480258D5F8B000E7
:101D2000B0F5807F19D1FFF7CFFC029011E000BF22
:101D3000FFF7CAFC0299411A41F28830814208D962
:101D4000032426462878DFF81494C043C00721D026
:101D50003CE0D9F800008007EAD5D5F8B010C1F30F
:101D600001200328FE480DD0016821F47C51016058
:101D7000B5F8B020D9F80010C2F30B021143C9F82E
:101D80000010DFE7F74A036802EA111223F47C51DE
:101D90001143ECE7A86F182816D005DCA0B108287D
:101DA00008D0102804D10AE020280DD028280BD014
:101DB00001240AE00198012101F050FE03E000989F
:101DC000012101F0DBFE044664B126462878C043B9
:101DD00080071ED4686F062819D2DFE800F0160CC1
:101DE00011161616AA6FD9F8001021F03801114308
:101DF000C9F80010EAE70198012101F02FFE03E085
:101E00000098012101F0BAFE04467CB100E00124F3
:101E100026462878C04340071FD4D5F890000628EE
:101E200019D2DFE800F0160C111616166A6FD9F8F1
:101E3000001021F007011143C9F80010E9E70198EB
:101E4000012101F00BFE03E00098012101F096FE54
:101E50000446A4B100E0012426462878C043800649
:101E60002BD4D5F88C00B0F1405F24D011DC10B336
:101E7000B0F1805F15D0B0F1005F10D116E0D5F859
:101E80009020D8F8001021F007011143C8F8001085
:101E9000E3E7B0F1804F0ED0B0F1A04F0BD001249A
:101EA0000AE00198002101F0D9FD03E00098022129
:101EB00001F064FE044694B126462878C0434006EB
:101EC0002BD4D5F89800B0F5406F24D011DC10B3B6
:101ED000B0F5806F15D0B0F5006F10D116E0D5F8D1
:101EE0008C20D9F8001021F0E0411143C9F800100E
:101EF000E3E7B0F5805F0ED0B0F5A05F0BD0012412
:101F00000AE00198002101F0A9FD03E000980221F8
:101F100001F034FE044694B126462878C0430006FA
:101F20002BD4D5F89C00B0F5C04F24D011DC10B3F1
:101F3000B0F5005F15D0B0F5804F10D116E0D5F8A0
:101F40009820D8F8001021F4E0511143C8F800108F
:101F5000E3E7B0F5004F0ED0B0F5204F0BD00124D1
:101F60000AE00198002101F079FD03E000980221C8
:101F700001F004FE044654B126462878C043000709
:101F80001ED4D5F88000B0F5805F0AD00FE0D5F8F8
:101F90009C20D8F8001021F460411143C8F80010CB
:101FA000EBE70098022101F0E9FD00B10126D5F828
:101FB0008020D9F8001021F440511143C9F80010D5
:101FC0002878C043C00613D4D5F89400B0F5807FBC
:101FD00005D10098022101F0D1FD00B10126D5F80C
:101FE0009420D8F8001021F440711143C8F8001073
:101FF0002868C043000316D4D5F8A00038B1B0F566
:10200000803F09D0B0F5003F0BD001240AE00198D1
:10201000002101F023FD03E00098022101F0AEFD54
:1020200004468CB126462868C043400322D4D5F824
:102030008400B0F5801F11D0B0F5001F13D0B0F5AB
:10204000401F15D0012414E0D5F8A020D8F80010C6
:1020500021F440311143C8F80010E4E7386840F437
:102060000030386004E00098012101F087FD04464B
:102070005CB126462868C043C0031CD4286D70B1EB
:10208000B0F5803F10D0012414E0D5F88420D9F8B1
:10209000001021F440111143C9F80010EAE7386834
:1020A00040F40030386004E00198022101F0D6FCD1
:1020B0000446DCB126462868C043800005D4009859
:1020C000022101F05BFD00B101262868C0438003B6
:1020D0001BD4E86FB8B1B0F5807F10D0B0F5007FA9
:1020E00011D0B0F5407F0ED001240DE02A6DDBF851
:1020F000001021F480311143CBF80010DBE7386881
:1021000040F4003038607CB326462868C043C002E3
:1021100007D42A6FDAF8001021F000411143CAF801
:1021200000102868C043800207D4AA6EDAF80010B5
:1021300021F080711143CAF800102868C0434000A4
:1021400009D40748016821F4004101600168D5F80D
:10215000B420114301602868C04306E0544402588B
:1021600010440258CFFFFF001DE007D46A6DDBF872
:10217000001021F040511143CBF800102868C043F3
:10218000000208D4D5F88820D9F8001021F44001C5
:102190001143C9F8001028790024C04300F0010061
:1021A000204309D00EE0EA6FD9F8001021F4407105
:1021B0001143C9F80010A8E70198002101F04EFC76
:1021C00000B106462879C04300F00200204305D143
:1021D0000198012101F042FC00B106462879C04374
:1021E00000F00400204305D10198022101F036FCE3
:1021F00000B106462879C04300F00800204305D10D
:102200000098002101F0BAFC00B106462879C043CD
:1022100000F01000204305D10098012101F0AEFC30
:1022200000B106462879C04300F02000044304D1E1
:102230000098022101F0A2FC00B916B10120BDE80E
:10224000FE8F0020FBE700002DE9F05F04000F4641
:102250007ED0DFF83882D8F8000000F00F00B842D6
:102260000CD2D8F8001021F00F013943C8F8001043
:10227000D8F8000000F00F00B84269D12078844DF2
:1022800040070AD52069296801F07001884204D905
:10229000296821F070010143296020787C4E361DA9
:1022A00000070AD56069316801F07001884204D9DD
:1022B000316821F07001014331602078C0060AD5F1
:1022C000A069316801F4E061884204D9316821F4E1
:1022D000E061014331602078DFF8B4B180060BF192
:1022E000080B0CD5E1695846DBF8002002F07002BB
:1022F000914204D9026822F070020A4302602078F9
:1023000080070AD5E068296801F00F01884204D9E6
:10231000296821F00F01014329602078C0073ED0D1
:102320005B49A2682868183920F47060104328605F
:102330006068022818D0032819D00968012819D02C
:10234000490700294ADADFF848A1AAF1080A00E0A3
:1023500044E0DAF8002022F007020243CAF8002025
:10236000FFF7B2F9814612E009688903E9E70968D5
:102370008901E6E7C905E4E7FFF7A6F9A0EB090143
:1023800041F28830814202D90320BDE8F09F6168A4
:10239000DAF8000000F03800B0EBC10FECD1207883
:1023A00080070AD5E068296801F00F01884204D24D
:1023B000296821F00F0101432960D8F80010404638
:1023C00001F00F01B9420BD9016821F00F01394327
:1023D0000160006800F00F00B84201D00120D4E78E
:1023E000207840070AD52069296801F070018842E9
:1023F00004D2296821F07001014329602078000788
:102400000AD56069316801F07001884204D23168F0
:1024100021F07001014331602078C0060AD5A0691F
:10242000316801F4E061884204D2316821F4E0614E
:1024300001433160207880060CD5E1695846DBF80D
:10244000002002F07002914204D2026822F0700271
:102450000A43026000F026F80E492A682B68C2F38E
:10246000032203F00F038A5CC95C02F01F0201F033
:102470001F01D040084A20FA01F1116007490860A5
:1024800007480068BDE8F05FFFF75AB90020005226
:1024900018440258A43F000804000024000000244F
:1024A0001C000020454970B545480968434B103B66
:1024B00011F0380208D00111082A03D0102A0BD0DD
:1024C000182A0BD0084670BD19688906FBD5196813
:1024D000C1F3C101C84070BD3A4870BD3749374D9E
:1024E00018310C1D24350A68096826682D6802F029
:1024F000030406F00102C1F30511C5F3CC0515FB79
:1025000002F200EE102AB8EE400AE9B32F4ADFEDDE
:102510002E0AB7EE001A6CB1DFED2D1A012C01D096
:10252000022C43D002EE101A1068F8EE422A81EE17
:10253000A22A1EE01C68A40611D51B6801EE901AA1
:102540001168C3F3C103F8EE612AD84001EE900A86
:10255000C1F30800F8EE611A81EEA22A0BE001EE49
:10256000901ADFED1C2A00BFF8EE611A106882EEA7
:10257000A12AC0F3080001EE900AF8EE611A40EEBD
:10258000201A31EE810A00E015E022EE000A106800
:10259000C0F34620401C00EE900AF8EE600A80EE80
:1025A000201ABCEEC10A10EE100A70BD01EE901A9E
:1025B000DFED092AD8E7002070BD00001044025862
:1025C0000090D00340787D0100000039304402586B
:1025D0000024744A0024744C20BCBE4B2DE9F05FEB
:1025E00004007DD0FF4F2078FE4D1837DFF8F483CC
:1025F000103DC00748D0D8F80000396800F0380016
:10260000102815D0182803D101F0030002280FD09C
:102610006068B0F5803F12D010B1B0F5A02F18D08F
:10262000286820F480302860286820F4802009E0A1
:102630002868800328D560680028D2D024E0286864
:1026400040F480302860606888B1FFF73DF80646A6
:1026500009E0286840F480202860F0E7FFF734F8AC
:10266000801B64287ED828688003F7D50CE0FFF72C
:102670002BF8064605E000BFFFF726F8801B64280C
:10268000F0D828688003F7D42078800756D5D8F88A
:102690000000DFF85093396810F03800A9F10C09F8
:1026A0000ED0182801D188070AD0E068A8B329689D
:1026B00021F0190101432960FFF706F8064628E0DA
:1026C0002868400702D5E06800288AD0E1682868B9
:1026D00020F0190008432860FEF7F6FF064606E0E2
:1026E000D2E000BFFEF7F0FF801B0228BAD82868AE
:1026F0004007F7D5217CD9F8002022F0FE4242EABB
:102700000161C9F8001019E0FEF7DEFF801B022806
:10271000A8D828684007F7D5ECE7FFE7286820F03D
:1027200001002860FEF7D0FF064604E0FEF7CCFF6C
:10273000801B022896D828684007F7D42078C00666
:1027400046D5D8F80000DFF89C92396800F03800D0
:10275000A9F10409082812D0182805D101F00300B6
:10276000012800E0CEE00AD0E0690028286820D0E7
:1027700040F080002860FEF7A7FF064615E02868B5
:10278000C00502D5E06980287ED194F82010D9F8E0
:10279000002022F07C5242EA0161C9F8001017E0E3
:1027A000FEF792FF801B0228A0D82868C005F7D545
:1027B000EBE720F080002860FEF786FF064604E085
:1027C000FEF782FF801B022890D82868C005F7D446
:1027D0002078000729D58348616964300029814643
:1027E000016811D041F001010160FEF76DFF06465E
:1027F00005E000BFFEF768FF801B022888D8D9F8E3
:1028000000008007F6D510E021F001010160FEF71D
:102810005BFF064605E000BFFEF756FF801B02285F
:1028200070D8D9F800008007F6D42078800623D528
:10283000A0690028286810D040F480502860FEF776
:1028400043FF064605E000BFFEF73EFF801B02285F
:1028500058D828688004F7D50EE020F4805028600E
:10286000FEF732FF064604E0FEF72EFF801B02282B
:1028700048D828688004F7D42078400751D5DFF87D
:102880006891D9F8001000E015E141F48071C9F8B1
:102890000010FEF719FF064605E000BFFEF714FF23
:1028A000801B64282ED8D9F80000C005F6D54D4EFF
:1028B000A068603601280AD008B1052813D0306816
:1028C00020F001003060306820F0040002E0306841
:1028D00040F001003060A06841F2883A98B1FEF7FC
:1028E000F3FE81460AE0306840F004003060EEE715
:1028F000FEF7EAFEA0EB0901514503D830688007D6
:10290000F6D50EE072E0FEF7DFFE814606E000BF7E
:10291000FEF7DAFEA0EB0901514567D83068800761
:10292000F6D4606A00287CD0DFF8B8A0D8F8001090
:102930000AF1200A4FF6F87B0AF10408C1F3C2013C
:102940000329AAF104096DD00228286820F08070BC
:10295000286003D0FEF7B8FE044681E0FEF7B4FE1F
:10296000064604E0FEF7B0FE801B022875D82868F2
:102970008001F7D4E26A40F2F331386854F8283F16
:10298000884340EA021018433860217B4FF4FE0C64
:1029900022894FF0FE47208A4902267D521E401EA2
:1029A000A1F5007189B2C2F308021143761E0CEA48
:1029B00000400143484607EA06621143CAF8001086
:1029C000D9F8001021F00101C9F80010D8F8003042
:1029D000266A23EA0B0343EAC601C8F80010D9F8B7
:1029E000001004E0104402580048025835E0A26983
:1029F00021F00C011143C9F800100168E26921F0CF
:102A0000020111430160016841F4803101600168F5
:102A100041F400310160016841F4802101600168E6
:102A200001E06CE020E041F001010160286840F025
:102A300080702860FEF748FE044604E0FEF744FE7E
:102A4000001B022809D828688001F7D557E000BF8D
:102A5000FEF73AFE001B022802D90320BDE8F09FD2
:102A600028688001F4D44AE039680128DAF80000C7
:102A700021D0A26A01F0030393421CD1E26AC1F3A0
:102A800005118A4217D1216BC0F30802491E8A4200
:102A900011D1616BC0F34622491E91420BD1A16B4B
:102AA000C0F30642491E914205D1E16BC0F30660B6
:102AB000491E814201D00120D0E7A16C4646D8F8DA
:102AC0000000C0F3CC00814219D0D9F800004D4677
:102AD00020F00100C9F80000FEF7F6FD4FEA0007FC
:102AE000FEF7F2FDB842FBD0A26C306820EA0B0082
:102AF00040EAC2003060286840F0010028600020F1
:102B0000ACE7401EB0F1807F10B501D3012010BDAD
:102B10004FF0E02460610F21601700F08DFF00206E
:102B2000A0610721216110BD704770477047000008
:102B3000F0B590F83C20012A41D0224E012480F8C3
:102B40003C40022280F83D2002681F4D5368B2428B
:102B5000D2F808C001D0AA4203D14F6823F4700311
:102B60003B430F6823F070031F4357600268B24273
:102B700019D0B2F1804F16D0144B9A4213D0144B97
:102B80009A4210D0134B9A420DD0AA420BD0124B4E
:102B90009A4208D0114B9A4205D0114B9A4202D06A
:102BA000104B9A4204D189682CF08003194391603C
:102BB000002180F83D4080F83C100846F0BD02201E
:102BC000F0BD00000000014000040140000400408E
:102BD00000080040000C0040001800400040014088
:102BE00000E0004000E4004010B5040003D094F879
:102BF0003D0010B107E0012010BD002084F83C002A
:102C0000204600F023F8022084F83D002068211DB2
:102C100000F048FA012084F8480084F83E0084F867
:102C20003F0084F8400084F8410084F8420084F8B2
:102C3000430084F8440084F8450084F8460084F892
:102C4000470084F83D00002010BD000008B5016871
:102C50001448B1F1804F14D0134A914220D1016839
:102C600041F00201016000680022012100F0020031
:102C700000901D20FEF7EEFD1D20BDE80840FEF788
:102C8000DBBD016841F001010160006800221146CE
:102C900000F0010000901C20FEF7DCFD1C20ECE79A
:102CA00008BD0000E84402580004004090F83D10C0
:102CB000012901D0012070471A4A022180F83D10F5
:102CC0000168CB6843F00103CB60006890421AD0E2
:102CD000B0F1804F17D01449884214D0134988426C
:102CE00011D0134988420ED0124988420BD01249A4
:102CF000884208D01149884205D01149884202D043
:102D00001049884207D181680F4A1140062906D030
:102D1000B1F5803F03D0016841F00101016000205E
:102D2000704700000000014000040040000800401F
:102D3000000C004000040140001800400040014029
:102D400000E0004000E400400700010070B50446C8
:102D500090F83C000025012814D03A4B012684F855
:102D60003C60022084F83D0022689068184020F4FE
:102D70007F409060086870282FD010DC10F00F0F93
:102D800003D022E04FF0020070BD4FEA2012072A64
:102D90001BD2DFE802F0535353534B394100B0F1DB
:102DA000101F4BD009DCB0F5805F0FD0B0F5005F8D
:102DB0001ED0B0F5801F08D140E0A0F58011203969
:102DC0003CD010293AD0202938D0012584F83D6024
:102DD000002084F83C00284670BD4A682068D1E98C
:102DE000021300F0D1F92068816841F0770109E011
:102DF0004A682068D1E9021300F0C6F920688168AA
:102E000041F480418160E1E7CA684968206800F0C8
:102E1000D5FC2068502106E0CA684968206800F0A7
:102E2000DEFC2068602100F0BFFCCFE7CA6849687B
:102E3000206800F0C3FC20684021F4E722680146C6
:102E40001046F0E788FFCEFF70472DE9F0410446B9
:102E500000680027C6680569A90713D5B10711D511
:102E6000FA1E0261012121772068806980072046CF
:102E700002D0FFF7E9FF04E000F08BF8204600F0F5
:102E800089F82777680716D5700714D522680220BD
:102E90006FF00401116120772068806910F4407F91
:102EA000204602D0FFF7D0FF04E000F072F8204681
:102EB00000F070F82777280715D5300713D522685A
:102EC00004206FF00801116120772068C069800735
:102ED000204602D0FFF7B8FF04E000F05AF8204681
:102EE00000F058F82777E80616D5F00614D52268C2
:102EF00008206FF01001116120772068C06910F47C
:102F0000407F204602D0FFF79FFF04E000F041F829
:102F1000204600F03FF82777E80708D0F00706D0F2
:102F200021686FF001000861204600F035F828069E
:102F300001D4A80408D5300606D521686FF40250E4
:102F400008612046FFF7F1FDE80508D5300606D5F3
:102F500021686FF4807008612046FFF7E5FD680680
:102F600008D5700606D521686FF04000086120463C
:102F700000F024F8A8060AD5B00608D521686FF03D
:102F8000200008612046BDE8F041FFF7CFBDBDE855
:102F9000F08170477047000000680121054AB0F1D8
:102FA000804F04D0044B984200D15170704711708B
:102FB0007047000000000020000400407047FEE75A
:102FC000FEE7FEE770477047FEF784BB2748F0B581
:102FD000274A016841F470010160106800F00F0099
:102FE000072804D2106820F00F00C01D106021498E
:102FF0000020204C10340B681F4D43F001030B6080
:1030000020600B682B400B60136803F00F03072B45
:1030100004D9136823F00F03DB1D1360154C174A06
:103020001834174B261D371D2060124C154D2834BF
:103030003060261D3860371D23603B1D35601C1D28
:103040003A60251D2E1D1860331D226028603260F5
:1030500018600A6843F2D204064B0B4D22F480221A
:1030600060330A6018602C60F0BD000088ED00E05D
:1030700000200052004402587FEDF6EA8002010170
:10308000000202020000FF01004000520148FFF769
:10309000DCBE0000500100240148FFF7D6BE00004E
:1030A0009C0100242DE9F0472D4B4FF0804A2D4D17
:1030B000026898422C4E2D4F2D4C09D0504507D018
:1030C000A84205D0B04203D0B84201D0A04205D1F9
:1030D000D1F804C022F070024CEA0202DFF894C07A
:1030E000DFF894809842DFF8949015D0504513D0C3
:1030F000A84211D0B0420FD0B8420DD0A0420BD0A0
:10310000604509D0404507D0484505D01C4DA84230
:1031100002D01C4DA84203D1CD6822F440722A434C
:103120004D6922F080022A43026098428A68C26296
:103130000A68826207D0A04205D0604503D04045AE
:1031400001D0484501D1096901630121416101694B
:10315000C90703D0016921F001010161BDE8F087D1
:10316000000001400004004000080040000C004046
:10317000000401400040014000440140004801407B
:1031800000E0004000E4004042EA032283680A4372
:1031900023F47F410A4382607047FEE730B59DB05B
:1031A0004C216846FDF7A3F9202113A8FDF79FF9EC
:1031B0000220FEF781FB1D480024016821F44041F4
:1031C00041F480410160016801F440411B910168B4
:1031D0008904FCD50C21022000900422CDE90904C9
:1031E000CDE90B21CDE90D020FAA4025012382E88C
:1031F000130012946846CDE90335FFF7EFF908B1E3
:1032000072B6FEE73F20CDE913041594012113A8FF
:1032100016941794189419941A94FFF715F8002827
:1032200001D072B6FEE71DB030BD0000184802584C
:103230001FB502AA002108230291CDE900320391B3
:103240000422837AC17A00F00FF81FBD1FB502AACD
:10325000002108230291CDE9003203910322837AF1
:10326000C17A00F001F81FBDF8B516461D460446A8
:103270000F46300640EA052139430020DDE90632D9
:1032800000E0401C9842FCDB01200090606805686B
:10329000AD68A847002807D00120FDF793FBD4F8BC
:1032A000BC00401CC4F8BC00F8BD7FB5017300240D
:1032B00002AB02940525082203948DF8085070266D
:1032C000CDE900238DF8096012228DF80C10837A65
:1032D000C17AFFF7C9FF7FBDB4EEC10AF1EE10FA63
:1032E00071EE601A02DDB0EE410A08E0B0EE601A3D
:1032F000B4EEC10AF1EE10FA01D2B0EE600A01207C
:1033000070EE600A8840401E00EE100AB8EEC00A57
:1033100020EE800AC0EE210ABDEEE00A10EE100A8F
:10332000704700001FB504460020B0EE414AB0EEE1
:10333000603A10210290F0EE613AF0EE402AB2EECF
:10334000091AFAEE090A03902046FFF7C5FF000AA2
:103350008DF8080010212046B2EE091AFAEE090A8B
:10336000B0EE620AFFF7B8FF10218DF80900B3EE46
:103370000E1AFBEE0E0AB0EE430A2046FFF7ACFF32
:10338000000A8DF80A0010212046B3EE0E1AFBEE5B
:103390000E0AB0EE430AFFF79FFFDFED262A9FEDEE
:1033A000263A10218DF80B00B0EE621AF0EE430AB7
:1033B000B0EE630A2046FFF78FFF000A8DF80C007D
:1033C00010212046B0EE621AF0EE430AB0EE630A16
:1033D000FFF782FF10218DF80D00B1EE041AF0EE18
:1033E000430AB0EE420A2046FFF776FF000A8DF846
:1033F0000E0010212046B1EE041AF0EE430AB0EEA2
:10340000420AFFF769FF10218DF80F00B2EE081A8B
:10341000FAEE080AB0EE440A2046FFF75DFF02AA62
:10342000082183B22046CDE90012E17A0122FFF79C
:103430001BFF1FBD0000FA43000000001FB502ACD7
:1034400000210823029101220391CDE900348DF877
:1034500008200622837AC17AFFF706FF1FBD41606C
:1034600002817047002310B5044CC0E9004381720B
:10347000C2720373C0F8BC3010BD0000BC3F00082E
:103480002DE9F04104461D464FF47A76134606981E
:1034900000284FF0000005D0B1F1005F3CD2F206E9
:1034A000E26003E0B1F5006F36D2E060082DA16064
:1034B000206201D9082540E0082D3ED2DFE805F062
:1034C000042F31333537393B606104F12C002A4633
:1034D00019468046FCF772FF082D05D260192C3082
:1034E000C5F10801FCF7E1FFFEF7EEF804F108076B
:1034F0000546606842463946FDF7BAFAF8B1606899
:10350000D0F89C00800507D50120FDF75BFAFEF797
:10351000DBF8401BB042ECD90020BDE8F08101206F
:10352000D2E70220D0E70320CEE70420CCE7052035
:10353000CAE70620C8E70720C6E70820C4E701203D
:10354000EBE730B5044689B0012561600020AA0789
:1035500002230393CDE90125CDE90450069001A98A
:103560006068FDF7E6FA02220095606801231146C3
:10357000FDF71EFB012260681146FDF7ADFA606899
:10358000FDF763FF606800220121FDF72DFA09B005
:10359000012030BD0149016070470000CC3F0008A8
:1035A00000B587B014216846FCF7A1FF16480168F2
:1035B00041F080010160016801F08001059101681E
:1035C00041F001010160016801F00101059101680C
:1035D00041F008010160016801F0080105910168EE
:1035E00041F00201016000680021012200F00200A8
:1035F00005904FF400408DE8070004486946FDF748
:1036000047FF07B000BD0000E04402580000025828
:1036100010B588B01748002440F67F424FF0804133
:1036200040F2E733009401940294039404940594C7
:10363000069480E81600C0E903348461FFF7D4FAE9
:1036400008B172B6FEE74FF4805000900948694611
:10365000FFF77CFB08B172B6FEE7064804A90494A4
:103660000694FFF765FA002801D072B6FEE708B0AD
:1036700010BD00005001002410B588B01748002488
:10368000154940F27F2242F20F7300940194029494
:10369000039404940594069480E81600C0E903346A
:1036A0008461FFF7A1FA08B172B6FEE74FF48050CB
:1036B00000900A486946FFF749FB08B172B6FEE779
:1036C000064804A904940694FFF732FA002801D0B2
:1036D00072B6FEE708B010BD000400409C01002453
:1036E0001748002170B5154D00F1140681600422C1
:1036F00005600123C16009250174022441748174AD
:1037000086E82C00C0E908438362C362C0E90C313B
:10371000C0E90E1404640323C0E91121C0E9132198
:10372000C0E91521C0E91713C0E91912FDF7B4FC6F
:10373000002801D072B6FEE770BD000000A0004076
:10374000100000241748002170B5154D00F1140633
:103750008160042205600123C160092501740224EF
:103760004174817486E82C00C0E908438362C36217
:10377000C0E90C31C0E90E1404640323C0E911212F
:10378000C0E91321C0E91521C0E91713C0E91912D6
:10379000FDF782FC002801D072B6FEE770BD000084
:1037A00000A40040B0000024034B82681A400A4382
:1037B00042F00701816070478FFFCFFF10B5036AA9
:1037C000046A23F00A0324F00104046284690B43B1
:1037D00024F0F00141EA02118161036210BD10B5CD
:1037E000036A046A23F0A00324F0100404628469CD
:1037F00043EA011124F4704343EA02328261016218
:1038000010BD0000F0B58E680C69D1E9005744EA9C
:103810000604DFB145F080452C43866ED1E906C52C
:103820004F695E4391F8203045EA0C05B1F80CC0B1
:10383000D0F884E0002047EA03630C4F1D430EEBF1
:10384000860345EA0C45E3E802450AE044EA85447C
:10385000E3E71418155C001DD4F8014045EA042480
:1038600010C3CC683C5D8442F3D8F0BD483F0008EB
:10387000F0B503684FF6FC716D4C426BD3F8845081
:103880008D4345EA8205C3F88450036853F8845F8A
:10389000068F25F47F0545EA06451D60836B654D5F
:1038A0009F180268D2F888308B4343EA8703C2F836
:1038B0008830026852F8883F868F23F4FE0343EA7B
:1038C00006431360066856F8A03FC26B8B4307EBB4
:1038D000420243EA82033360076857F8A03FB0F81A
:1038E000406023F4FE0343EA06433B60D0E9103610
:1038F00003FB06220368D3F8B0608E4346EA8206D3
:10390000C3F8B0600368B0F84860D3F8B07027F42B
:10391000FE0747EA0646C3F8B060D0E912670368BD
:1039200006FB0722D3F8AC608E4346EA8206C3F852
:10393000AC60D0E91467036806FB0722D3F8F06097
:103940008E4346EA8206C3F8F0600368B0F8586018
:10395000D3F8F07027F47C1747EA0646C3F8F06006
:103960000368876D53F8C06F02EB47028E4346EA47
:10397000820119600168B0F85C20D1F8C03023F4EE
:103980007C1343EA0242C1F8C020016890F860202D
:10399000D1F8C03023F07C5343EA0262C1F8C02062
:1039A000416B04EB8101C166826B01EB820202670D
:1039B000C36B02EBC3024267D0E91034634302EBEE
:1039C00083028267D0E91234634302EB8302C26749
:1039D000D0E91434634302EB8302C0F88020836D86
:1039E00002EBC303C0F88430C46D826E544303EB12
:1039F0008403C0F88830046E544303EB8402C0F89B
:103A00009020AA420AD9D0F89C20032142F020023B
:103A1000C0F89C2080F898100120F0BD002200E042
:103A200004C1D0F890308B42FAD80020F0BD0000DD
:103A300000AC0040FCD30040090700284FEA1161A8
:103A400004DB00F1E02080F80014704700F00F0064
:103A500000F1E02080F8141D704700002DE9F047C8
:103A6000454D044689464FF0000A2868C043800748
:103A70000AD0414E283E306820F080603060FDF76B
:103A800023FE0746B04608E00120BDE8F08700BFEE
:103A9000FDF71AFEC01B022867D8D8F80000000105
:103AA000F6D4206829684FF4FE0721F47C313E02E9
:103AB00041EA00302860207AA389B4F804C04002AB
:103AC0002D4D2D495B1E227CACF1010C1035091DDA
:103AD000A0F5007080B2521ECCF3080C07EA034335
:103AE00040EA0C00184306EA0262104328600868A6
:103AF000626920F0C000104308600A68A06922F0E3
:103B0000200202430A60281D0A6822F010020A609F
:103B100002684FF6F873E4699A4342EAC40202600D
:103B20000868B9F1000F40F010020A6011D008686F
:103B3000B9F1010F11D040F400100860D8F800006E
:103B4000444640F08060C8F80000FDF7BDFD054622
:103B50000DE0086840F40020EFE740F48010ECE747
:103B6000FDF7B2FD401B022801D903208DE7206834
:103B70000001F5D5504688E7284402582DE9F04762
:103B8000454D044689464FF0000A2868C043800727
:103B90000AD0414E283E306820F080503060FDF75A
:103BA00093FD0746B04608E00120BDE8F08700BF5E
:103BB000FDF78AFDC01B022867D8D8F800008000F6
:103BC000F6D4208829684FF4FE0721F07C713E026C
:103BD00041EA00502860207AA389B4F804C040026A
:103BE0002D4D2D495B1E227CACF1010C1835091DB1
:103BF000A0F5007080B2521ECCF3080C07EA034314
:103C000040EA0C00184306EA026210432860086884
:103C1000626920F44060104308600A68A06922F4D9
:103C2000007202430A60281D0A6822F480720A604A
:103C300002684FF6F873E4699A4342EAC4020260EC
:103C40000868B9F1000F40F480720A6011D008686A
:103C5000B9F1010F11D040F080700860D8F8000071
:103C6000444640F08050C8F80000FDF72DFD0546A1
:103C70000DE0086840F48000EFE740F40000ECE756
:103C8000FDF722FD401B022801D903208DE72068A3
:103C90008000F5D5504688E72844025810B500F05A
:103CA00001F810BD10B5FCF74CFC10BD10B500F0CC
:103CB00001F810BD10B5040007D1012405E0FCF7A0
:103CC0006BFC006800B9044880472046FCF7AFFC55
:103CD0000028F4D010BD0000A3060008024800210F
:103CE0000160001D016070474000002070B50A4D62
:103CF000022400260820FFF7D9FFC5E90004286840
:103D0000641E40F82460FAD12846BDE87040034A9A
:103D10000349FCF75BBD0000080000240000000818
:103D2000313F0008024800210160001D016070471A
:103D3000240000202DED028BADF52E7D0024AA94E9
:103D4000AB94AC94AD94FDF749FD01208DF8B4021D
:103D50001F218DF8B01287228DF8B1228DF8B5029F
:103D60008DF8A802AAA88DF8B2428DF8B6428DF857
:103D7000A942AB948DF8B3428DF8B742FDF700FD30
:103D80000420FDF739FDFDF7ADFCFFF707FAFFF75B
:103D900007FCFFF7A5FCFFF7D5FCFFF739FCFFF7A1
:103DA0006BFC5D48FEF782FF5B484C30FEF77EFF00
:103DB0009DA8FFF7EFFB90A8FFF7ECFB57499DA8E4
:103DC000FFF7BFFB544990A8A039FFF7BAFB0122C7
:103DD0006846FD21FFF746FB0222FD2130A8FFF7D0
:103DE00041FB0122FD2160A8FFF73CFB0022684651
:103DF00090A9FFF734FB002290A930A8FFF72FFB12
:103E000000229DA960A8FFF72AFB6846FFF710FA79
:103E10006846FFF713FB6846FFF718FA002168466B
:103E2000FFF743FA30A8FFF703FA30A8FFF706FBC5
:103E300030A8FFF70BFA002130A8FFF736FA64200C
:103E4000FCF7C0FD364F4FF40048DFF8D8904FF430
:103E5000FA75464641463846FDF72DFC2846FCF7E4
:103E6000B1FD31463846FDF721FC99F800104E4669
:103E70000029EED001280AD030A8FFF7D9F968460A
:103E8000FFF7D6F92846FCF79DFD3470E1E79FED7A
:103E9000268ADFED268AB7EE002AF2EE0E1AB0EE81
:103EA000481AF0EE680AB0EE480A6846FFF73AFA98
:103EB0002846FCF787FDB7EE002AF2EE0E1AB0EEA8
:103EC000481AF0EE680AB0EE480A30A8FFF72AFA5E
:103ED0002846FCF777FDB7EE002AF2EE0E1AB0EE98
:103EE000481AF0EE680AB7EE000A6846FFF71AFAB9
:103EF0002846FCF767FDB7EE002AF2EE0E1AB0EE88
:103F0000481AF0EE680AB7EE000A30A8FFF70AFA7E
:103F10002846FCF757FDB5E75001002410000024A7
:103F2000000002580000002000000000CDCCCC3D75
:103F300010B504460068FFF7B1FE204610BD4FF0F3
:103F40004070E1EE100A7047000102030405060705
:103F5000080C101418203040000000000000000081
:103F60000000000000000000000000000100000050
:103F70000200000003000000040000000000000038
:103F8000050000000000000000000000000000002C
:103F9000060000000000000000000000000000001B
:103FA00007000000000000000102030401020304F6
:103FB00006070809000000000000000000000000E3
:103FC00000000000000000000000000000000000F1
:103FD0000000000081340008000000000000000024
:103FE00000000000304000080000002048000000F1
:103FF00008030008784000080000002410000000BA
:104000000803000878400008480000200004000071
:104010002403000888400008100000243804000031
:104020002403000801FDFFFFB5FCFFFFC1FCFFFFFB
:104030000000000000000000000000000000000080
:10404000000000000000000001000000100000005F
:104050000000000000000000000000000000000060
:104060000000000000000000000000000000000050
:1040700000000000000000000090D0030090D0037A
:08408000000000000000000038
:04000005080002CD20
:00000001FF
